{
  "contractName": "NumeraireShared",
  "abi": [
    {
      "constant": true,
      "inputs": [],
      "name": "totalSupply",
      "outputs": [
        {
          "name": "",
          "type": "uint256"
        }
      ],
      "payable": false,
      "stateMutability": "view",
      "type": "function"
    },
    {
      "constant": true,
      "inputs": [],
      "name": "numerai",
      "outputs": [
        {
          "name": "",
          "type": "address"
        }
      ],
      "payable": false,
      "stateMutability": "view",
      "type": "function"
    },
    {
      "constant": true,
      "inputs": [
        {
          "name": "",
          "type": "address"
        }
      ],
      "name": "balanceOf",
      "outputs": [
        {
          "name": "",
          "type": "uint256"
        }
      ],
      "payable": false,
      "stateMutability": "view",
      "type": "function"
    },
    {
      "constant": true,
      "inputs": [
        {
          "name": "",
          "type": "uint256"
        }
      ],
      "name": "tournaments",
      "outputs": [
        {
          "name": "creationTime",
          "type": "uint256"
        }
      ],
      "payable": false,
      "stateMutability": "view",
      "type": "function"
    },
    {
      "constant": true,
      "inputs": [],
      "name": "initial_disbursement",
      "outputs": [
        {
          "name": "",
          "type": "uint256"
        }
      ],
      "payable": false,
      "stateMutability": "view",
      "type": "function"
    },
    {
      "constant": true,
      "inputs": [],
      "name": "weekly_disbursement",
      "outputs": [
        {
          "name": "",
          "type": "uint256"
        }
      ],
      "payable": false,
      "stateMutability": "view",
      "type": "function"
    },
    {
      "constant": true,
      "inputs": [],
      "name": "deploy_time",
      "outputs": [
        {
          "name": "",
          "type": "uint256"
        }
      ],
      "payable": false,
      "stateMutability": "view",
      "type": "function"
    },
    {
      "constant": true,
      "inputs": [],
      "name": "total_minted",
      "outputs": [
        {
          "name": "",
          "type": "uint256"
        }
      ],
      "payable": false,
      "stateMutability": "view",
      "type": "function"
    },
    {
      "constant": true,
      "inputs": [
        {
          "name": "",
          "type": "address"
        },
        {
          "name": "",
          "type": "address"
        }
      ],
      "name": "allowance",
      "outputs": [
        {
          "name": "",
          "type": "uint256"
        }
      ],
      "payable": false,
      "stateMutability": "view",
      "type": "function"
    },
    {
      "constant": true,
      "inputs": [],
      "name": "supply_cap",
      "outputs": [
        {
          "name": "",
          "type": "uint256"
        }
      ],
      "payable": false,
      "stateMutability": "view",
      "type": "function"
    },
    {
      "payable": true,
      "stateMutability": "payable",
      "type": "fallback"
    },
    {
      "anonymous": false,
      "inputs": [
        {
          "indexed": false,
          "name": "value",
          "type": "uint256"
        }
      ],
      "name": "Mint",
      "type": "event"
    },
    {
      "anonymous": false,
      "inputs": [
        {
          "indexed": true,
          "name": "from",
          "type": "address"
        },
        {
          "indexed": true,
          "name": "to",
          "type": "address"
        },
        {
          "indexed": false,
          "name": "value",
          "type": "uint256"
        }
      ],
      "name": "Transfer",
      "type": "event"
    },
    {
      "anonymous": false,
      "inputs": [
        {
          "indexed": true,
          "name": "owner",
          "type": "address"
        },
        {
          "indexed": true,
          "name": "spender",
          "type": "address"
        },
        {
          "indexed": false,
          "name": "value",
          "type": "uint256"
        }
      ],
      "name": "Approval",
      "type": "event"
    },
    {
      "anonymous": false,
      "inputs": [
        {
          "indexed": true,
          "name": "staker",
          "type": "address"
        },
        {
          "indexed": false,
          "name": "tag",
          "type": "bytes32"
        },
        {
          "indexed": false,
          "name": "totalAmountStaked",
          "type": "uint256"
        },
        {
          "indexed": false,
          "name": "confidence",
          "type": "uint256"
        },
        {
          "indexed": true,
          "name": "tournamentID",
          "type": "uint256"
        },
        {
          "indexed": true,
          "name": "roundID",
          "type": "uint256"
        }
      ],
      "name": "Staked",
      "type": "event"
    },
    {
      "anonymous": false,
      "inputs": [
        {
          "indexed": true,
          "name": "tournamentID",
          "type": "uint256"
        },
        {
          "indexed": true,
          "name": "roundID",
          "type": "uint256"
        },
        {
          "indexed": false,
          "name": "endTime",
          "type": "uint256"
        },
        {
          "indexed": false,
          "name": "resolutionTime",
          "type": "uint256"
        }
      ],
      "name": "RoundCreated",
      "type": "event"
    },
    {
      "anonymous": false,
      "inputs": [
        {
          "indexed": true,
          "name": "tournamentID",
          "type": "uint256"
        }
      ],
      "name": "TournamentCreated",
      "type": "event"
    },
    {
      "anonymous": false,
      "inputs": [
        {
          "indexed": true,
          "name": "tournamentID",
          "type": "uint256"
        },
        {
          "indexed": true,
          "name": "roundID",
          "type": "uint256"
        },
        {
          "indexed": true,
          "name": "stakerAddress",
          "type": "address"
        },
        {
          "indexed": false,
          "name": "tag",
          "type": "bytes32"
        }
      ],
      "name": "StakeDestroyed",
      "type": "event"
    },
    {
      "anonymous": false,
      "inputs": [
        {
          "indexed": true,
          "name": "tournamentID",
          "type": "uint256"
        },
        {
          "indexed": true,
          "name": "roundID",
          "type": "uint256"
        },
        {
          "indexed": true,
          "name": "stakerAddress",
          "type": "address"
        },
        {
          "indexed": false,
          "name": "tag",
          "type": "bytes32"
        },
        {
          "indexed": false,
          "name": "etherReward",
          "type": "uint256"
        }
      ],
      "name": "StakeReleased",
      "type": "event"
    },
    {
      "constant": true,
      "inputs": [],
      "name": "getMintable",
      "outputs": [
        {
          "name": "",
          "type": "uint256"
        }
      ],
      "payable": false,
      "stateMutability": "view",
      "type": "function"
    }
  ],
  "bytecode": "0x6080604052306000806101000a81548173ffffffffffffffffffffffffffffffffffffffff021916908373ffffffffffffffffffffffffffffffffffffffff1602179055506a115eec47f6cf7e3500000060015569145c82ac800328189d8960025534801561006d57600080fd5b506104dd8061007d6000396000f3006080604052600436106100af576000357c0100000000000000000000000000000000000000000000000000000000900463ffffffff16806318160ddd146100b157806329684907146100dc57806370a08231146101335780637503e1b71461018a5780638b1d67f9146101cb5780639e20afdf146101f6578063a5d8cdf214610221578063be17be5d1461024c578063dd62ed3e14610277578063eaac77ea146102ee578063f698bceb14610319575b005b3480156100bd57600080fd5b506100c6610344565b6040518082815260200191505060405180910390f35b3480156100e857600080fd5b506100f161034a565b604051808273ffffffffffffffffffffffffffffffffffffffff1673ffffffffffffffffffffffffffffffffffffffff16815260200191505060405180910390f35b34801561013f57600080fd5b50610174600480360381019080803573ffffffffffffffffffffffffffffffffffffffff16906020019092919050505061036f565b6040518082815260200191505060405180910390f35b34801561019657600080fd5b506101b560048036038101908080359060200190929190505050610387565b6040518082815260200191505060405180910390f35b3480156101d757600080fd5b506101e06103a5565b6040518082815260200191505060405180910390f35b34801561020257600080fd5b5061020b6103ab565b6040518082815260200191505060405180910390f35b34801561022d57600080fd5b506102366103b1565b6040518082815260200191505060405180910390f35b34801561025857600080fd5b506102616103b7565b6040518082815260200191505060405180910390f35b34801561028357600080fd5b506102d8600480360381019080803573ffffffffffffffffffffffffffffffffffffffff169060200190929190803573ffffffffffffffffffffffffffffffffffffffff1690602001909291905050506103bd565b6040518082815260200191505060405180910390f35b3480156102fa57600080fd5b506103036103e2565b6040518082815260200191505060405180910390f35b34801561032557600080fd5b5061032e6103e8565b6040518082815260200191505060405180910390f35b60065481565b6000809054906101000a900473ffffffffffffffffffffffffffffffffffffffff1681565b60076020528060005260406000206000915090505481565b60096020528060005260406000206000915090508060000154905081565b60035481565b60025481565b60045481565b60055481565b6008602052816000526040600020602052806000526040600020600091509150505481565b60015481565b600061042561041d60035462093a8061040e6002546104094260045461042a565b610454565b81151561041757fe5b04610487565b60055461042a565b905090565b60008082840390508383111580156104425750838111155b151561044a57fe5b8091505092915050565b60008082840290506000841480610475575082848281151561047257fe5b04145b151561047d57fe5b8091505092915050565b600080828401905083811015801561049f5750828110155b15156104a757fe5b80915050929150505600a165627a7a7230582085163dc0c317ddfdd0d12d5ad2c1bc404a8ab7f08461b5410b52f48f466ead960029",
  "source": "pragma solidity ^0.4.11;\n\nimport \"contracts/Safe.sol\";\n\n// Class variables used both in NumeraireBackend and NumeraireDelegate\n\ncontract NumeraireShared is Safe {\n\n    address public numerai = this;\n\n    // Cap the total supply and the weekly supply\n    uint256 public supply_cap = 21000000e18; // 21 million\n    uint256 public weekly_disbursement = 96153846153846153846153;\n\n    uint256 public initial_disbursement;\n    uint256 public deploy_time;\n\n    uint256 public total_minted;\n\n    // ERC20 requires totalSupply, balanceOf, and allowance\n    uint256 public totalSupply;\n    mapping (address => uint256) public balanceOf;\n    mapping (address => mapping (address => uint256)) public allowance;\n\n    mapping (uint => Tournament) public tournaments;  // tournamentID\n\n    struct Tournament {\n        uint256 creationTime;\n        uint256[] roundIDs;\n        mapping (uint256 => Round) rounds;  // roundID\n    } \n\n    struct Round {\n        uint256 creationTime;\n        uint256 endTime;\n        uint256 resolutionTime;\n        mapping (address => mapping (bytes32 => Stake)) stakes;  // address of staker\n    }\n\n    // The order is important here because of its packing characteristics.\n    // Particularly, `amount` and `confidence` are in the *same* word, so\n    // Solidity can update both at the same time (if the optimizer can figure\n    // out that you're updating both).  This makes `stake()` cheap.\n    struct Stake {\n        uint128 amount; // Once the stake is resolved, this becomes 0\n        uint128 confidence;\n        bool successful;\n        bool resolved;\n    }\n\n    // Generates a public event on the blockchain to notify clients\n    event Mint(uint256 value);\n    event Transfer(address indexed from, address indexed to, uint256 value);\n    event Approval(address indexed owner, address indexed spender, uint256 value);\n    event Staked(address indexed staker, bytes32 tag, uint256 totalAmountStaked, uint256 confidence, uint256 indexed tournamentID, uint256 indexed roundID);\n    event RoundCreated(uint256 indexed tournamentID, uint256 indexed roundID, uint256 endTime, uint256 resolutionTime);\n    event TournamentCreated(uint256 indexed tournamentID);\n    event StakeDestroyed(uint256 indexed tournamentID, uint256 indexed roundID, address indexed stakerAddress, bytes32 tag);\n    event StakeReleased(uint256 indexed tournamentID, uint256 indexed roundID, address indexed stakerAddress, bytes32 tag, uint256 etherReward);\n\n    // Calculate allowable disbursement\n    function getMintable() constant returns (uint256) {\n        return\n            safeSubtract(\n                safeAdd(initial_disbursement,\n                    safeMultiply(weekly_disbursement,\n                        safeSubtract(block.timestamp, deploy_time))\n                    / 1 weeks),\n                total_minted);\n    }\n}\n",
  "sourcePath": "contracts/NumeraireShared.sol",
  "compiler": {
    "name": "solc",
    "version": "0.4.25+commit.59dbf8f1.Emscripten.clang",
    "optimizer": false,
    "runs": 200
  },
  "schemaVersion": "2.1.2",
  "updatedAt": "2019-07-01T19:19:16.556Z"
}