{
  "contractName": "NumeraireDelegateV3",
  "abi": [
    {
      "constant": true,
      "inputs": [],
      "name": "name",
      "outputs": [
        {
          "name": "",
          "type": "string"
        }
      ],
      "payable": false,
      "stateMutability": "view",
      "type": "function"
    },
    {
      "constant": true,
      "inputs": [],
      "name": "totalSupply",
      "outputs": [
        {
          "name": "",
          "type": "uint256"
        }
      ],
      "payable": false,
      "stateMutability": "view",
      "type": "function"
    },
    {
      "constant": true,
      "inputs": [],
      "name": "numerai",
      "outputs": [
        {
          "name": "",
          "type": "address"
        }
      ],
      "payable": false,
      "stateMutability": "view",
      "type": "function"
    },
    {
      "constant": true,
      "inputs": [
        {
          "name": "_addr",
          "type": "address"
        }
      ],
      "name": "isOwner",
      "outputs": [
        {
          "name": "",
          "type": "bool"
        }
      ],
      "payable": false,
      "stateMutability": "view",
      "type": "function"
    },
    {
      "constant": true,
      "inputs": [],
      "name": "decimals",
      "outputs": [
        {
          "name": "",
          "type": "uint256"
        }
      ],
      "payable": false,
      "stateMutability": "view",
      "type": "function"
    },
    {
      "constant": true,
      "inputs": [],
      "name": "delegateContract",
      "outputs": [
        {
          "name": "",
          "type": "address"
        }
      ],
      "payable": false,
      "stateMutability": "view",
      "type": "function"
    },
    {
      "constant": true,
      "inputs": [],
      "name": "standard",
      "outputs": [
        {
          "name": "",
          "type": "string"
        }
      ],
      "payable": false,
      "stateMutability": "view",
      "type": "function"
    },
    {
      "constant": false,
      "inputs": [],
      "name": "emergencyStop",
      "outputs": [],
      "payable": false,
      "stateMutability": "nonpayable",
      "type": "function"
    },
    {
      "constant": true,
      "inputs": [
        {
          "name": "",
          "type": "address"
        }
      ],
      "name": "balanceOf",
      "outputs": [
        {
          "name": "",
          "type": "uint256"
        }
      ],
      "payable": false,
      "stateMutability": "view",
      "type": "function"
    },
    {
      "constant": true,
      "inputs": [
        {
          "name": "",
          "type": "uint256"
        }
      ],
      "name": "tournaments",
      "outputs": [
        {
          "name": "creationTime",
          "type": "uint256"
        }
      ],
      "payable": false,
      "stateMutability": "view",
      "type": "function"
    },
    {
      "constant": true,
      "inputs": [],
      "name": "stopped",
      "outputs": [
        {
          "name": "",
          "type": "bool"
        }
      ],
      "payable": false,
      "stateMutability": "view",
      "type": "function"
    },
    {
      "constant": false,
      "inputs": [
        {
          "name": "_owners",
          "type": "address[]"
        },
        {
          "name": "_required",
          "type": "uint256"
        }
      ],
      "name": "changeShareable",
      "outputs": [],
      "payable": false,
      "stateMutability": "nonpayable",
      "type": "function"
    },
    {
      "constant": true,
      "inputs": [],
      "name": "contractUpgradable",
      "outputs": [
        {
          "name": "",
          "type": "bool"
        }
      ],
      "payable": false,
      "stateMutability": "view",
      "type": "function"
    },
    {
      "constant": false,
      "inputs": [],
      "name": "release",
      "outputs": [],
      "payable": false,
      "stateMutability": "nonpayable",
      "type": "function"
    },
    {
      "constant": true,
      "inputs": [],
      "name": "initial_disbursement",
      "outputs": [
        {
          "name": "",
          "type": "uint256"
        }
      ],
      "payable": false,
      "stateMutability": "view",
      "type": "function"
    },
    {
      "constant": true,
      "inputs": [],
      "name": "symbol",
      "outputs": [
        {
          "name": "",
          "type": "string"
        }
      ],
      "payable": false,
      "stateMutability": "view",
      "type": "function"
    },
    {
      "constant": true,
      "inputs": [],
      "name": "weekly_disbursement",
      "outputs": [
        {
          "name": "",
          "type": "uint256"
        }
      ],
      "payable": false,
      "stateMutability": "view",
      "type": "function"
    },
    {
      "constant": true,
      "inputs": [],
      "name": "deploy_time",
      "outputs": [
        {
          "name": "",
          "type": "uint256"
        }
      ],
      "payable": false,
      "stateMutability": "view",
      "type": "function"
    },
    {
      "constant": false,
      "inputs": [
        {
          "name": "_operation",
          "type": "bytes32"
        }
      ],
      "name": "revoke",
      "outputs": [],
      "payable": false,
      "stateMutability": "nonpayable",
      "type": "function"
    },
    {
      "constant": true,
      "inputs": [],
      "name": "stoppable",
      "outputs": [
        {
          "name": "",
          "type": "bool"
        }
      ],
      "payable": false,
      "stateMutability": "view",
      "type": "function"
    },
    {
      "constant": true,
      "inputs": [],
      "name": "total_minted",
      "outputs": [
        {
          "name": "",
          "type": "uint256"
        }
      ],
      "payable": false,
      "stateMutability": "view",
      "type": "function"
    },
    {
      "constant": true,
      "inputs": [
        {
          "name": "_operation",
          "type": "bytes32"
        },
        {
          "name": "_owner",
          "type": "address"
        }
      ],
      "name": "hasConfirmed",
      "outputs": [
        {
          "name": "",
          "type": "bool"
        }
      ],
      "payable": false,
      "stateMutability": "view",
      "type": "function"
    },
    {
      "constant": true,
      "inputs": [
        {
          "name": "ownerIndex",
          "type": "uint256"
        }
      ],
      "name": "getOwner",
      "outputs": [
        {
          "name": "",
          "type": "address"
        }
      ],
      "payable": false,
      "stateMutability": "view",
      "type": "function"
    },
    {
      "constant": false,
      "inputs": [],
      "name": "disableStopping",
      "outputs": [],
      "payable": false,
      "stateMutability": "nonpayable",
      "type": "function"
    },
    {
      "constant": true,
      "inputs": [],
      "name": "required",
      "outputs": [
        {
          "name": "",
          "type": "uint256"
        }
      ],
      "payable": false,
      "stateMutability": "view",
      "type": "function"
    },
    {
      "constant": true,
      "inputs": [
        {
          "name": "",
          "type": "address"
        },
        {
          "name": "",
          "type": "address"
        }
      ],
      "name": "allowance",
      "outputs": [
        {
          "name": "",
          "type": "uint256"
        }
      ],
      "payable": false,
      "stateMutability": "view",
      "type": "function"
    },
    {
      "constant": true,
      "inputs": [],
      "name": "supply_cap",
      "outputs": [
        {
          "name": "",
          "type": "uint256"
        }
      ],
      "payable": false,
      "stateMutability": "view",
      "type": "function"
    },
    {
      "constant": true,
      "inputs": [],
      "name": "getMintable",
      "outputs": [
        {
          "name": "",
          "type": "uint256"
        }
      ],
      "payable": false,
      "stateMutability": "view",
      "type": "function"
    },
    {
      "constant": true,
      "inputs": [
        {
          "name": "",
          "type": "uint256"
        }
      ],
      "name": "previousDelegates",
      "outputs": [
        {
          "name": "",
          "type": "address"
        }
      ],
      "payable": false,
      "stateMutability": "view",
      "type": "function"
    },
    {
      "inputs": [
        {
          "name": "_owners",
          "type": "address[]"
        },
        {
          "name": "_num_required",
          "type": "uint256"
        }
      ],
      "payable": false,
      "stateMutability": "nonpayable",
      "type": "constructor"
    },
    {
      "payable": true,
      "stateMutability": "payable",
      "type": "fallback"
    },
    {
      "anonymous": false,
      "inputs": [
        {
          "indexed": false,
          "name": "oldAddress",
          "type": "address"
        },
        {
          "indexed": false,
          "name": "newAddress",
          "type": "address"
        }
      ],
      "name": "DelegateChanged",
      "type": "event"
    },
    {
      "anonymous": false,
      "inputs": [
        {
          "indexed": false,
          "name": "value",
          "type": "uint256"
        }
      ],
      "name": "Mint",
      "type": "event"
    },
    {
      "anonymous": false,
      "inputs": [
        {
          "indexed": true,
          "name": "from",
          "type": "address"
        },
        {
          "indexed": true,
          "name": "to",
          "type": "address"
        },
        {
          "indexed": false,
          "name": "value",
          "type": "uint256"
        }
      ],
      "name": "Transfer",
      "type": "event"
    },
    {
      "anonymous": false,
      "inputs": [
        {
          "indexed": true,
          "name": "owner",
          "type": "address"
        },
        {
          "indexed": true,
          "name": "spender",
          "type": "address"
        },
        {
          "indexed": false,
          "name": "value",
          "type": "uint256"
        }
      ],
      "name": "Approval",
      "type": "event"
    },
    {
      "anonymous": false,
      "inputs": [
        {
          "indexed": true,
          "name": "staker",
          "type": "address"
        },
        {
          "indexed": false,
          "name": "tag",
          "type": "bytes32"
        },
        {
          "indexed": false,
          "name": "totalAmountStaked",
          "type": "uint256"
        },
        {
          "indexed": false,
          "name": "confidence",
          "type": "uint256"
        },
        {
          "indexed": true,
          "name": "tournamentID",
          "type": "uint256"
        },
        {
          "indexed": true,
          "name": "roundID",
          "type": "uint256"
        }
      ],
      "name": "Staked",
      "type": "event"
    },
    {
      "anonymous": false,
      "inputs": [
        {
          "indexed": true,
          "name": "tournamentID",
          "type": "uint256"
        },
        {
          "indexed": true,
          "name": "roundID",
          "type": "uint256"
        },
        {
          "indexed": false,
          "name": "endTime",
          "type": "uint256"
        },
        {
          "indexed": false,
          "name": "resolutionTime",
          "type": "uint256"
        }
      ],
      "name": "RoundCreated",
      "type": "event"
    },
    {
      "anonymous": false,
      "inputs": [
        {
          "indexed": true,
          "name": "tournamentID",
          "type": "uint256"
        }
      ],
      "name": "TournamentCreated",
      "type": "event"
    },
    {
      "anonymous": false,
      "inputs": [
        {
          "indexed": true,
          "name": "tournamentID",
          "type": "uint256"
        },
        {
          "indexed": true,
          "name": "roundID",
          "type": "uint256"
        },
        {
          "indexed": true,
          "name": "stakerAddress",
          "type": "address"
        },
        {
          "indexed": false,
          "name": "tag",
          "type": "bytes32"
        }
      ],
      "name": "StakeDestroyed",
      "type": "event"
    },
    {
      "anonymous": false,
      "inputs": [
        {
          "indexed": true,
          "name": "tournamentID",
          "type": "uint256"
        },
        {
          "indexed": true,
          "name": "roundID",
          "type": "uint256"
        },
        {
          "indexed": true,
          "name": "stakerAddress",
          "type": "address"
        },
        {
          "indexed": false,
          "name": "tag",
          "type": "bytes32"
        },
        {
          "indexed": false,
          "name": "etherReward",
          "type": "uint256"
        }
      ],
      "name": "StakeReleased",
      "type": "event"
    },
    {
      "anonymous": false,
      "inputs": [
        {
          "indexed": false,
          "name": "owner",
          "type": "address"
        },
        {
          "indexed": false,
          "name": "operation",
          "type": "bytes32"
        }
      ],
      "name": "Confirmation",
      "type": "event"
    },
    {
      "anonymous": false,
      "inputs": [
        {
          "indexed": false,
          "name": "owner",
          "type": "address"
        },
        {
          "indexed": false,
          "name": "operation",
          "type": "bytes32"
        }
      ],
      "name": "Revoke",
      "type": "event"
    },
    {
      "constant": false,
      "inputs": [
        {
          "name": "_from",
          "type": "address"
        },
        {
          "name": "_to",
          "type": "address"
        },
        {
          "name": "_value",
          "type": "uint256"
        }
      ],
      "name": "withdraw",
      "outputs": [
        {
          "name": "ok",
          "type": "bool"
        }
      ],
      "payable": false,
      "stateMutability": "nonpayable",
      "type": "function"
    },
    {
      "constant": false,
      "inputs": [
        {
          "name": "",
          "type": "uint256"
        },
        {
          "name": "",
          "type": "uint256"
        },
        {
          "name": "",
          "type": "uint256"
        },
        {
          "name": "",
          "type": "uint256"
        }
      ],
      "name": "createRound",
      "outputs": [
        {
          "name": "ok",
          "type": "bool"
        }
      ],
      "payable": false,
      "stateMutability": "nonpayable",
      "type": "function"
    },
    {
      "constant": false,
      "inputs": [
        {
          "name": "_newDelegate",
          "type": "uint256"
        }
      ],
      "name": "createTournament",
      "outputs": [
        {
          "name": "ok",
          "type": "bool"
        }
      ],
      "payable": false,
      "stateMutability": "nonpayable",
      "type": "function"
    },
    {
      "constant": false,
      "inputs": [
        {
          "name": "_value",
          "type": "uint256"
        }
      ],
      "name": "mint",
      "outputs": [
        {
          "name": "ok",
          "type": "bool"
        }
      ],
      "payable": false,
      "stateMutability": "nonpayable",
      "type": "function"
    },
    {
      "constant": false,
      "inputs": [
        {
          "name": "_to",
          "type": "address"
        },
        {
          "name": "_value",
          "type": "uint256"
        }
      ],
      "name": "numeraiTransfer",
      "outputs": [
        {
          "name": "ok",
          "type": "bool"
        }
      ],
      "payable": false,
      "stateMutability": "nonpayable",
      "type": "function"
    },
    {
      "constant": true,
      "inputs": [
        {
          "name": "",
          "type": "address"
        },
        {
          "name": "",
          "type": "bytes32"
        },
        {
          "name": "",
          "type": "uint256"
        },
        {
          "name": "",
          "type": "uint256"
        },
        {
          "name": "",
          "type": "uint256"
        },
        {
          "name": "",
          "type": "bool"
        }
      ],
      "name": "releaseStake",
      "outputs": [
        {
          "name": "",
          "type": "bool"
        }
      ],
      "payable": false,
      "stateMutability": "pure",
      "type": "function"
    },
    {
      "constant": true,
      "inputs": [
        {
          "name": "",
          "type": "address"
        },
        {
          "name": "",
          "type": "bytes32"
        },
        {
          "name": "",
          "type": "uint256"
        },
        {
          "name": "",
          "type": "uint256"
        }
      ],
      "name": "destroyStake",
      "outputs": [
        {
          "name": "",
          "type": "bool"
        }
      ],
      "payable": false,
      "stateMutability": "pure",
      "type": "function"
    },
    {
      "constant": true,
      "inputs": [
        {
          "name": "",
          "type": "uint256"
        },
        {
          "name": "",
          "type": "bytes32"
        },
        {
          "name": "",
          "type": "uint256"
        },
        {
          "name": "",
          "type": "uint256"
        },
        {
          "name": "",
          "type": "uint256"
        }
      ],
      "name": "stake",
      "outputs": [
        {
          "name": "",
          "type": "bool"
        }
      ],
      "payable": false,
      "stateMutability": "pure",
      "type": "function"
    },
    {
      "constant": true,
      "inputs": [
        {
          "name": "",
          "type": "address"
        },
        {
          "name": "",
          "type": "uint256"
        },
        {
          "name": "",
          "type": "bytes32"
        },
        {
          "name": "",
          "type": "uint256"
        },
        {
          "name": "",
          "type": "uint256"
        },
        {
          "name": "",
          "type": "uint256"
        }
      ],
      "name": "stakeOnBehalf",
      "outputs": [
        {
          "name": "",
          "type": "bool"
        }
      ],
      "payable": false,
      "stateMutability": "pure",
      "type": "function"
    }
  ],
  "bytecode": "0x60806040523061010460006101000a81548173ffffffffffffffffffffffffffffffffffffffff021916908373ffffffffffffffffffffffffffffffffffffffff160217905550600161010460156101000a81548160ff0219169083151502179055503061010560006101000a81548173ffffffffffffffffffffffffffffffffffffffff021916908373ffffffffffffffffffffffffffffffffffffffff1602179055506a115eec47f6cf7e350000006101065569145c82ac800328189d8961010755348015620000d057600080fd5b506040516200250d3803806200250d833981018060405281019080805182019291906020018051906020019092919050505081818181600033600180610100811015156200011a57fe5b0160006101000a81548173ffffffffffffffffffffffffffffffffffffffff021916908373ffffffffffffffffffffffffffffffffffffffff160217905550600161010160003373ffffffffffffffffffffffffffffffffffffffff1673ffffffffffffffffffffffffffffffffffffffff16815260200190815260200160002081905550600090505b825181101562000286578281815181101515620001bd57fe5b9060200190602002015160018260020161010081101515620001db57fe5b0160006101000a81548173ffffffffffffffffffffffffffffffffffffffff021916908373ffffffffffffffffffffffffffffffffffffffff16021790555080600201610101600085848151811015156200023257fe5b9060200190602002015173ffffffffffffffffffffffffffffffffffffffff1673ffffffffffffffffffffffffffffffffffffffff16815260200190815260200160002081905550806001019050620001a4565b61010060005411156200029857600080fd5b8160008190555050505050507329f709e42c95c604ba76e73316d325077f8eb7b273ffffffffffffffffffffffffffffffffffffffff163073ffffffffffffffffffffffffffffffffffffffff1614151562000382576040517f08c379a00000000000000000000000000000000000000000000000000000000081526004018080602001828103825260408152602001807f696e636f7272656374206465706c6f796d656e742061646472657373202d206381526020017f6865636b207375626d697474696e67206163636f756e742026206e6f6e63652e81525060400191505060405180910390fd5b505061217980620003946000396000f3006080604052600436106101d8576000357c0100000000000000000000000000000000000000000000000000000000900463ffffffff16806306fdde03146101da57806318160ddd1461026a57806329684907146102955780632f54bf6e146102ec578063313ce567146103475780633c2b0725146103725780635a3b7e42146103c95780635bc91b2f146104595780635c251cbf146104bc57806363a599a41461054f57806363ff195d1461056657806370a08231146105f75780637503e1b71461064e57806375f12b211461068f578063788023ff146106be57806378b150bd1461072e5780637c8d56b81461075d57806386d1a69f146107c25780638b1d67f9146107d95780638b93d3fc1461080457806395d89b41146108755780639e20afdf14610905578063a0712d6814610930578063a425b75214610975578063a5d8cdf2146109f2578063b75c7dc614610a1d578063bb4872de14610a4e578063be17be5d14610a7d578063c2cf732614610aa8578063c41a360a14610b11578063d08b89f314610b7e578063d9caed1214610b95578063dc8452cd14610c1a578063dd20a53e14610c45578063dd62ed3e14610c8a578063eaac77ea14610d01578063f698bceb14610d2c578063fbd2dbad14610d57575b005b3480156101e657600080fd5b506101ef610dc4565b6040518080602001828103825283818151815260200191508051906020019080838360005b8381101561022f578082015181840152602081019050610214565b50505050905090810190601f16801561025c5780820380516001836020036101000a031916815260200191505b509250505060405180910390f35b34801561027657600080fd5b5061027f610e63565b6040518082815260200191505060405180910390f35b3480156102a157600080fd5b506102aa610e6a565b604051808273ffffffffffffffffffffffffffffffffffffffff1673ffffffffffffffffffffffffffffffffffffffff16815260200191505060405180910390f35b3480156102f857600080fd5b5061032d600480360381019080803573ffffffffffffffffffffffffffffffffffffffff169060200190929190505050610e91565b604051808215151515815260200191505060405180910390f35b34801561035357600080fd5b5061035c610edd565b6040518082815260200191505060405180910390f35b34801561037e57600080fd5b50610387610ee4565b604051808273ffffffffffffffffffffffffffffffffffffffff1673ffffffffffffffffffffffffffffffffffffffff16815260200191505060405180910390f35b3480156103d557600080fd5b506103de610f0b565b6040518080602001828103825283818151815260200191508051906020019080838360005b8381101561041e578082015181840152602081019050610403565b50505050905090810190601f16801561044b5780820380516001836020036101000a031916815260200191505b509250505060405180910390f35b34801561046557600080fd5b506104a260048036038101908080359060200190929190803590602001909291908035906020019092919080359060200190929190505050610faa565b604051808215151515815260200191505060405180910390f35b3480156104c857600080fd5b50610535600480360381019080803573ffffffffffffffffffffffffffffffffffffffff169060200190929190803560001916906020019092919080359060200190929190803590602001909291908035906020019092919080351515906020019092919050505061103e565b604051808215151515815260200191505060405180910390f35b34801561055b57600080fd5b50610564611045565b005b34801561057257600080fd5b506105dd600480360381019080803573ffffffffffffffffffffffffffffffffffffffff16906020019092919080359060200190929190803560001916906020019092919080359060200190929190803590602001909291908035906020019092919050505061108b565b604051808215151515815260200191505060405180910390f35b34801561060357600080fd5b50610638600480360381019080803573ffffffffffffffffffffffffffffffffffffffff169060200190929190505050611092565b6040518082815260200191505060405180910390f35b34801561065a57600080fd5b50610679600480360381019080803590602001909291905050506110ab565b6040518082815260200191505060405180910390f35b34801561069b57600080fd5b506106a46110ca565b604051808215151515815260200191505060405180910390f35b3480156106ca57600080fd5b5061072c60048036038101908080359060200190820180359060200190808060200260200160405190810160405280939291908181526020018383602002808284378201915050505050509192919290803590602001909291905050506110de565b005b34801561073a57600080fd5b5061074361120c565b604051808215151515815260200191505060405180910390f35b34801561076957600080fd5b506107a8600480360381019080803573ffffffffffffffffffffffffffffffffffffffff16906020019092919080359060200190929190505050611220565b604051808215151515815260200191505060405180910390f35b3480156107ce57600080fd5b506107d7611236565b005b3480156107e557600080fd5b506107ee61129b565b6040518082815260200191505060405180910390f35b34801561081057600080fd5b5061085b6004803603810190808035906020019092919080356000191690602001909291908035906020019092919080359060200190929190803590602001909291905050506112a2565b604051808215151515815260200191505060405180910390f35b34801561088157600080fd5b5061088a6112a9565b6040518080602001828103825283818151815260200191508051906020019080838360005b838110156108ca5780820151818401526020810190506108af565b50505050905090810190601f1680156108f75780820380516001836020036101000a031916815260200191505b509250505060405180910390f35b34801561091157600080fd5b5061091a611348565b6040518082815260200191505060405180910390f35b34801561093c57600080fd5b5061095b6004803603810190808035906020019092919050505061134f565b604051808215151515815260200191505060405180910390f35b34801561098157600080fd5b506109d8600480360381019080803573ffffffffffffffffffffffffffffffffffffffff16906020019092919080356000191690602001909291908035906020019092919080359060200190929190505050611364565b604051808215151515815260200191505060405180910390f35b3480156109fe57600080fd5b50610a0761136b565b6040518082815260200191505060405180910390f35b348015610a2957600080fd5b50610a4c6004803603810190808035600019169060200190929190505050611372565b005b348015610a5a57600080fd5b50610a6361149c565b604051808215151515815260200191505060405180910390f35b348015610a8957600080fd5b50610a926114b0565b6040518082815260200191505060405180910390f35b348015610ab457600080fd5b50610af76004803603810190808035600019169060200190929190803573ffffffffffffffffffffffffffffffffffffffff1690602001909291905050506114b7565b604051808215151515815260200191505060405180910390f35b348015610b1d57600080fd5b50610b3c6004803603810190808035906020019092919050505061154d565b604051808273ffffffffffffffffffffffffffffffffffffffff1673ffffffffffffffffffffffffffffffffffffffff16815260200191505060405180910390f35b348015610b8a57600080fd5b50610b9361158a565b005b348015610ba157600080fd5b50610c00600480360381019080803573ffffffffffffffffffffffffffffffffffffffff169060200190929190803573ffffffffffffffffffffffffffffffffffffffff169060200190929190803590602001909291905050506115d6565b604051808215151515815260200191505060405180910390f35b348015610c2657600080fd5b50610c2f611800565b6040518082815260200191505060405180910390f35b348015610c5157600080fd5b50610c7060048036038101908080359060200190929190505050611806565b604051808215151515815260200191505060405180910390f35b348015610c9657600080fd5b50610ceb600480360381019080803573ffffffffffffffffffffffffffffffffffffffff169060200190929190803573ffffffffffffffffffffffffffffffffffffffff169060200190929190505050611a06565b6040518082815260200191505060405180910390f35b348015610d0d57600080fd5b50610d16611a2c565b6040518082815260200191505060405180910390f35b348015610d3857600080fd5b50610d41611a33565b6040518082815260200191505060405180910390f35b348015610d6357600080fd5b50610d8260048036038101908080359060200190929190505050611a79565b604051808273ffffffffffffffffffffffffffffffffffffffff1673ffffffffffffffffffffffffffffffffffffffff16815260200191505060405180910390f35b6101128054600181600116156101000203166002900480601f016020809104026020016040519081016040528092919081815260200182805460018160011615610100020316600290048015610e5b5780601f10610e3057610100808354040283529160200191610e5b565b820191906000526020600020905b815481529060010190602001808311610e3e57829003601f168201915b505050505081565b61010b5481565b61010560009054906101000a900473ffffffffffffffffffffffffffffffffffffffff1681565b60008061010160008473ffffffffffffffffffffffffffffffffffffffff1673ffffffffffffffffffffffffffffffffffffffff16815260200190815260200160002054119050919050565b6101145481565b61010f60009054906101000a900473ffffffffffffffffffffffffffffffffffffffff1681565b6101118054600181600116156101000203166002900480601f016020809104026020016040519081016040528092919081815260200182805460018160011615610100020316600290048015610fa25780601f10610f7757610100808354040283529160200191610fa2565b820191906000526020600020905b815481529060010190602001808311610f8557829003601f168201915b505050505081565b600073b17df4a656505570ad994d023f632d48de04edf273ffffffffffffffffffffffffffffffffffffffff163373ffffffffffffffffffffffffffffffffffffffff16141515610ffa57600080fd5b61010f60149054906101000a900460ff16151561101657600080fd5b600061010f60146101000a81548160ff02191690831515021790555060019050949350505050565b6000806000fd5b61104e33610e91565b156110895761010460159054906101000a900460ff16151561106c57fe5b600161010460146101000a81548160ff0219169083151502179055505b565b6000806000fd5b61010c6020528060005260406000206000915090505481565b61010e6020528060005260406000206000915090508060000154905081565b61010460149054906101000a900460ff1681565b6000803660405180838380828437820191505092505050604051809103902061110681611ab8565b1561120657600091505b83518210156111ed57838281518110151561112757fe5b906020019060200201516001836001016101008110151561114457fe5b0160006101000a81548173ffffffffffffffffffffffffffffffffffffffff021916908373ffffffffffffffffffffffffffffffffffffffff160217905550816001016101016000868581518110151561119a57fe5b9060200190602002015173ffffffffffffffffffffffffffffffffffffffff1673ffffffffffffffffffffffffffffffffffffffff16815260200190815260200160002081905550816001019150611110565b61010060005411156111fe57600080fd5b826000819055505b50505050565b61010f60149054906101000a900460ff1681565b600061122c8383611cd8565b6001905092915050565b60003660405180838380828437820191505092505050604051809103902061125d81611ab8565b156112985761010460159054906101000a900460ff16151561127b57fe5b600061010460146101000a81548160ff0219169083151502179055505b50565b6101085481565b6000806000fd5b6101138054600181600116156101000203166002900480601f0160208091040260200160405190810160405280929190818152602001828054600181600116156101000203166002900480156113405780601f1061131557610100808354040283529160200191611340565b820191906000526020600020905b81548152906001019060200180831161132357829003601f168201915b505050505081565b6101075481565b600061135b3383611ed9565b60019050919050565b6000806000fd5b6101095481565b600080600061010160003373ffffffffffffffffffffffffffffffffffffffff1673ffffffffffffffffffffffffffffffffffffffff16815260200190815260200160002054925060008314156113c857611496565b8260020a915061010260008560001916600019168152602001908152602001600020905060008282600101541611156114955780600001600081548092919060010191905055508181600101600082825403925050819055507fc7fb647e59b18047309aa15aad418e5d7ca96d173ad704f1031a2c3d7591734b3385604051808373ffffffffffffffffffffffffffffffffffffffff1673ffffffffffffffffffffffffffffffffffffffff16815260200182600019166000191681526020019250505060405180910390a15b5b50505050565b61010460159054906101000a900460ff1681565b61010a5481565b60008060008061010260008760001916600019168152602001908152602001600020925061010160008673ffffffffffffffffffffffffffffffffffffffff1673ffffffffffffffffffffffffffffffffffffffff16815260200190815260200160002054915060008214156115305760009350611544565b8160020a9050600081846001015416141593505b50505092915050565b600060018083016101008110151561156157fe5b0160009054906101000a900473ffffffffffffffffffffffffffffffffffffffff169050919050565b6000366040518083838082843782019150509250505060405180910390206115b181611ab8565b156115d357600061010460156101000a81548160ff0219169083151502179055505b50565b600073b17df4a656505570ad994d023f632d48de04edf273ffffffffffffffffffffffffffffffffffffffff163373ffffffffffffffffffffffffffffffffffffffff1614151561162657600080fd5b600073ffffffffffffffffffffffffffffffffffffffff168373ffffffffffffffffffffffffffffffffffffffff161415151561166257600080fd5b6116b58261010c60008773ffffffffffffffffffffffffffffffffffffffff1673ffffffffffffffffffffffffffffffffffffffff1681526020019081526020016000205461203390919063ffffffff16565b61010c60008673ffffffffffffffffffffffffffffffffffffffff1673ffffffffffffffffffffffffffffffffffffffff1681526020019081526020016000208190555061174c8261010c60008673ffffffffffffffffffffffffffffffffffffffff1673ffffffffffffffffffffffffffffffffffffffff1681526020019081526020016000205461205490919063ffffffff16565b61010c60008573ffffffffffffffffffffffffffffffffffffffff1673ffffffffffffffffffffffffffffffffffffffff168152602001908152602001600020819055508273ffffffffffffffffffffffffffffffffffffffff168473ffffffffffffffffffffffffffffffffffffffff167fddf252ad1be2c89b69c2b068fc378daa952ba7f163c4a11628f55a4df523b3ef846040518082815260200191505060405180910390a3600190509392505050565b60005481565b60008073b17df4a656505570ad994d023f632d48de04edf273ffffffffffffffffffffffffffffffffffffffff163373ffffffffffffffffffffffffffffffffffffffff1614151561185757600080fd5b61010f60149054906101000a900460ff16151561187357600080fd5b82905061011061010f60009054906101000a900473ffffffffffffffffffffffffffffffffffffffff1690806001815401808255809150509060018203906000526020600020016000909192909190916101000a81548173ffffffffffffffffffffffffffffffffffffffff021916908373ffffffffffffffffffffffffffffffffffffffff160217905550507fef9fc1dee6010109e6e3b21e51d44028e246dbad8a5a71ea192a30b19e1f457f61010f60009054906101000a900473ffffffffffffffffffffffffffffffffffffffff1682604051808373ffffffffffffffffffffffffffffffffffffffff1673ffffffffffffffffffffffffffffffffffffffff1681526020018273ffffffffffffffffffffffffffffffffffffffff1673ffffffffffffffffffffffffffffffffffffffff1681526020019250505060405180910390a18061010f60006101000a81548173ffffffffffffffffffffffffffffffffffffffff021916908373ffffffffffffffffffffffffffffffffffffffff1602179055506001915050919050565b61010d602052816000526040600020602052806000526040600020600091509150505481565b6101065481565b6000611a74611a6b6101085462093a80611a5c61010754611a574261010954612075565b61209f565b811515611a6557fe5b046120d2565b61010a54612075565b905090565b61011081815481101515611a8957fe5b906000526020600020016000915054906101000a900473ffffffffffffffffffffffffffffffffffffffff1681565b60008060008061010160003373ffffffffffffffffffffffffffffffffffffffff1673ffffffffffffffffffffffffffffffffffffffff1681526020019081526020016000205492506000831415611b0f57611cd0565b610102600086600019166000191681526020019081526020016000209150600082600001541415611b94576000548260000181905550600082600101819055506101038054809190600101611b6491906120fc565b8260020181905550846101038360020154815481101515611b8157fe5b9060005260206000200181600019169055505b8260020a90506000818360010154161415611ccf577fe1c52dc63b719ade82e8bea94cc41a0d5d28e4aaf536adb5e9cccc9ff8c1aeda3386604051808373ffffffffffffffffffffffffffffffffffffffff1673ffffffffffffffffffffffffffffffffffffffff16815260200182600019166000191681526020019250505060405180910390a160018260000154111515611ca7576101036101026000876000191660001916815260200190815260200160002060020154815481101515611c5957fe5b90600052602060002001600090556101026000866000191660001916815260200190815260200160002060008082016000905560018201600090556002820160009055505060019350611cd0565b8160000160008154809291906001900391905055508082600101600082825417925050819055505b5b505050919050565b611d688161010d60008573ffffffffffffffffffffffffffffffffffffffff1673ffffffffffffffffffffffffffffffffffffffff16815260200190815260200160002060003373ffffffffffffffffffffffffffffffffffffffff1673ffffffffffffffffffffffffffffffffffffffff1681526020019081526020016000205461203390919063ffffffff16565b61010d60008473ffffffffffffffffffffffffffffffffffffffff1673ffffffffffffffffffffffffffffffffffffffff16815260200190815260200160002060003373ffffffffffffffffffffffffffffffffffffffff1673ffffffffffffffffffffffffffffffffffffffff16815260200190815260200160002081905550611df38282611ed9565b3373ffffffffffffffffffffffffffffffffffffffff168273ffffffffffffffffffffffffffffffffffffffff167f8c5be1e5ebec7d5bd14f71427d1e84f3dd0314c0f7b2291e5b200ac8c7c3b92561010d60008673ffffffffffffffffffffffffffffffffffffffff1673ffffffffffffffffffffffffffffffffffffffff16815260200190815260200160002060003373ffffffffffffffffffffffffffffffffffffffff1673ffffffffffffffffffffffffffffffffffffffff168152602001908152602001600020546040518082815260200191505060405180910390a35050565b600073ffffffffffffffffffffffffffffffffffffffff168273ffffffffffffffffffffffffffffffffffffffff1614151515611f1557600080fd5b611f2b8161010b5461203390919063ffffffff16565b61010b81905550611f858161010c60008573ffffffffffffffffffffffffffffffffffffffff1673ffffffffffffffffffffffffffffffffffffffff1681526020019081526020016000205461203390919063ffffffff16565b61010c60008473ffffffffffffffffffffffffffffffffffffffff1673ffffffffffffffffffffffffffffffffffffffff16815260200190815260200160002081905550600073ffffffffffffffffffffffffffffffffffffffff168273ffffffffffffffffffffffffffffffffffffffff167fddf252ad1be2c89b69c2b068fc378daa952ba7f163c4a11628f55a4df523b3ef836040518082815260200191505060405180910390a35050565b60008083831115151561204557600080fd5b82840390508091505092915050565b600080828401905083811015151561206b57600080fd5b8091505092915050565b600080828403905083831115801561208d5750838111155b151561209557fe5b8091505092915050565b600080828402905060008414806120c057508284828115156120bd57fe5b04145b15156120c857fe5b8091505092915050565b60008082840190508381101580156120ea5750828110155b15156120f257fe5b8091505092915050565b815481835581811115612123578183600052602060002091820191016121229190612128565b5b505050565b61214a91905b8082111561214657600081600090555060010161212e565b5090565b905600a165627a7a72305820ad2081fda90116405b7c0032cc573fcc2b6c9eb0cf9d806b9854d81635806c190029",
  "source": "pragma solidity >=0.4.25 <0.5.0;\n\nimport \"./helpers/openzeppelin-solidity/math/SafeMath.sol\";\nimport \"./StoppableShareable.sol\";\nimport \"./NumeraireShared.sol\";\n\n\n/// @title NumeraireDelegateV3\n/// @notice Delegate contract version 3 with the following functionality:\n///   1) Disabled upgradability\n///   2) Repurposed burn functions\n///   3) User NMR balance management through the relay contract\n/// @dev Deployed at address\n/// @dev Set in tx\n/// @dev Retired in tx\ncontract NumeraireDelegateV3 is StoppableShareable, NumeraireShared {\n\n    address public delegateContract;\n    bool public contractUpgradable;\n    address[] public previousDelegates;\n\n    string public standard;\n\n    string public name;\n    string public symbol;\n    uint256 public decimals;\n\n    // set the address of the relay as a constant (stored in runtime code)\n    address private constant _RELAY = address(\n        0xB17dF4a656505570aD994D023F632D48De04eDF2\n    );\n\n    event DelegateChanged(address oldAddress, address newAddress);\n\n    using SafeMath for uint256;\n\n    /* TODO: Can this contructor be removed completely? */\n    /// @dev Constructor called on deployment to initialize the delegate contract multisig\n    /// @param _owners Array of owner address to control multisig\n    /// @param _num_required Uint number of owners required for multisig transaction\n    constructor(address[] _owners, uint256 _num_required) public StoppableShareable(_owners, _num_required) {\n        require(\n            address(this) == address(0x29F709e42C95C604BA76E73316d325077f8eB7b2),\n            \"incorrect deployment address - check submitting account & nonce.\"\n        );\n    }\n\n    //////////////////////////////\n    // Special Access Functions //\n    //////////////////////////////\n\n    /// @notice Manage Numerai Tournament user balances\n    /// @dev Can only be called by numerai through the relay contract\n    /// @param _from User address from which to withdraw NMR\n    /// @param _to Address where to deposit NMR\n    /// @param _value Uint amount of NMR in wei to transfer\n    /// @return ok True if the transfer succeeds\n    function withdraw(address _from, address _to, uint256 _value) public returns(bool ok) {\n        require(msg.sender == _RELAY);\n        require(_to != address(0));\n\n        balanceOf[_from] = balanceOf[_from].sub(_value);\n        balanceOf[_to] = balanceOf[_to].add(_value);\n\n        emit Transfer(_from, _to, _value);\n        return true;\n    }\n\n    /// @notice Repurposed function to allow the relay contract to disable token upgradability.\n    /// @dev Can only be called by numerai through the relay contract\n    /// @return ok True if the call is successful\n    function createRound(uint256, uint256, uint256, uint256) public returns (bool ok) {\n        require(msg.sender == _RELAY);\n        require(contractUpgradable);\n        contractUpgradable = false;\n\n        return true;\n    }\n\n    /// @notice Repurposed function to allow the relay contract to upgrade the token.\n    /// @dev Can only be called by numerai through the relay contract\n    /// @param _newDelegate Address of the new delegate contract\n    /// @return ok True if the call is successful\n    function createTournament(uint256 _newDelegate) public returns (bool ok) {\n        require(msg.sender == _RELAY);\n        require(contractUpgradable);\n\n        address newDelegate = address(_newDelegate);\n\n        previousDelegates.push(delegateContract);\n        emit DelegateChanged(delegateContract, newDelegate);\n        delegateContract = newDelegate;\n\n        return true;\n    }\n\n    //////////////////////////\n    // Repurposed Functions //\n    //////////////////////////\n\n    /// @notice Repurposed function to implement token burn from the calling account\n    /// @param _value Uint amount of NMR in wei to burn\n    /// @return ok True if the burn succeeds\n    function mint(uint256 _value) public returns (bool ok) {\n        _burn(msg.sender, _value);\n        return true;\n    }\n\n    /// @notice Repurposed function to implement token burn on behalf of an approved account\n    /// @param _to Address from which to burn tokens\n    /// @param _value Uint amount of NMR in wei to burn\n    /// @return ok True if the burn succeeds\n    function numeraiTransfer(address _to, uint256 _value) public returns (bool ok) {\n        _burnFrom(_to, _value);\n        return true;\n    }\n\n    ////////////////////////\n    // Internal Functions //\n    ////////////////////////\n\n    /// @dev Internal function that burns an amount of the token of a given account.\n    /// @param _account The account whose tokens will be burnt.\n    /// @param _value The amount that will be burnt.\n    function _burn(address _account, uint256 _value) internal {\n        require(_account != address(0));\n\n        totalSupply = totalSupply.sub(_value);\n        balanceOf[_account] = balanceOf[_account].sub(_value);\n        emit Transfer(_account, address(0), _value);\n    }\n\n    /// @dev Internal function that burns an amount of the token of a given\n    /// account, deducting from the sender's allowance for said account. Uses the\n    /// internal burn function.\n    /// Emits an Approval event (reflecting the reduced allowance).\n    /// @param _account The account whose tokens will be burnt.\n    /// @param _value The amount that will be burnt.\n    function _burnFrom(address _account, uint256 _value) internal {\n        allowance[_account][msg.sender] = allowance[_account][msg.sender].sub(_value);\n        _burn(_account, _value);\n        emit Approval(_account, msg.sender, allowance[_account][msg.sender]);\n    }\n\n    ///////////////////////\n    // Trashed Functions //\n    ///////////////////////\n\n    /// @dev Disabled function no longer used\n    function releaseStake(address, bytes32, uint256, uint256, uint256, bool) public pure returns (bool) {\n        revert();\n    }\n\n    /// @dev Disabled function no longer used\n    function destroyStake(address, bytes32, uint256, uint256) public pure returns (bool) {\n        revert();\n    }\n\n    /// @dev Disabled function no longer used\n    function stake(uint256, bytes32, uint256, uint256, uint256) public pure returns (bool) {\n        revert();\n    }\n\n    /// @dev Disabled function no longer used\n    function stakeOnBehalf(address, uint256, bytes32, uint256, uint256, uint256) public pure returns (bool) {\n        revert();\n    }\n}\n",
  "sourcePath": "/Users/thegostep/github/NMR/contracts/NumeraireDelegateV3.sol",
  "compiler": {
    "name": "solc",
    "version": "0.4.25+commit.59dbf8f1.Emscripten.clang",
    "optimizer": false,
    "runs": 200
  },
  "schemaVersion": "2.1.2",
  "updatedAt": "2019-07-01T19:19:16.554Z"
}