{
  "contractName": "StoppableShareable",
  "abi": [
    {
      "constant": true,
      "inputs": [
        {
          "name": "_addr",
          "type": "address"
        }
      ],
      "name": "isOwner",
      "outputs": [
        {
          "name": "",
          "type": "bool"
        }
      ],
      "payable": false,
      "stateMutability": "view",
      "type": "function"
    },
    {
      "constant": true,
      "inputs": [],
      "name": "stopped",
      "outputs": [
        {
          "name": "",
          "type": "bool"
        }
      ],
      "payable": false,
      "stateMutability": "view",
      "type": "function"
    },
    {
      "constant": false,
      "inputs": [
        {
          "name": "_owners",
          "type": "address[]"
        },
        {
          "name": "_required",
          "type": "uint256"
        }
      ],
      "name": "changeShareable",
      "outputs": [],
      "payable": false,
      "stateMutability": "nonpayable",
      "type": "function"
    },
    {
      "constant": false,
      "inputs": [
        {
          "name": "_operation",
          "type": "bytes32"
        }
      ],
      "name": "revoke",
      "outputs": [],
      "payable": false,
      "stateMutability": "nonpayable",
      "type": "function"
    },
    {
      "constant": true,
      "inputs": [],
      "name": "stoppable",
      "outputs": [
        {
          "name": "",
          "type": "bool"
        }
      ],
      "payable": false,
      "stateMutability": "view",
      "type": "function"
    },
    {
      "constant": true,
      "inputs": [
        {
          "name": "_operation",
          "type": "bytes32"
        },
        {
          "name": "_owner",
          "type": "address"
        }
      ],
      "name": "hasConfirmed",
      "outputs": [
        {
          "name": "",
          "type": "bool"
        }
      ],
      "payable": false,
      "stateMutability": "view",
      "type": "function"
    },
    {
      "constant": true,
      "inputs": [
        {
          "name": "ownerIndex",
          "type": "uint256"
        }
      ],
      "name": "getOwner",
      "outputs": [
        {
          "name": "",
          "type": "address"
        }
      ],
      "payable": false,
      "stateMutability": "view",
      "type": "function"
    },
    {
      "constant": true,
      "inputs": [],
      "name": "required",
      "outputs": [
        {
          "name": "",
          "type": "uint256"
        }
      ],
      "payable": false,
      "stateMutability": "view",
      "type": "function"
    },
    {
      "inputs": [
        {
          "name": "_owners",
          "type": "address[]"
        },
        {
          "name": "_required",
          "type": "uint256"
        }
      ],
      "payable": false,
      "stateMutability": "nonpayable",
      "type": "constructor"
    },
    {
      "anonymous": false,
      "inputs": [
        {
          "indexed": false,
          "name": "owner",
          "type": "address"
        },
        {
          "indexed": false,
          "name": "operation",
          "type": "bytes32"
        }
      ],
      "name": "Confirmation",
      "type": "event"
    },
    {
      "anonymous": false,
      "inputs": [
        {
          "indexed": false,
          "name": "owner",
          "type": "address"
        },
        {
          "indexed": false,
          "name": "operation",
          "type": "bytes32"
        }
      ],
      "name": "Revoke",
      "type": "event"
    },
    {
      "constant": false,
      "inputs": [],
      "name": "emergencyStop",
      "outputs": [],
      "payable": false,
      "stateMutability": "nonpayable",
      "type": "function"
    },
    {
      "constant": false,
      "inputs": [],
      "name": "release",
      "outputs": [],
      "payable": false,
      "stateMutability": "nonpayable",
      "type": "function"
    },
    {
      "constant": false,
      "inputs": [],
      "name": "disableStopping",
      "outputs": [],
      "payable": false,
      "stateMutability": "nonpayable",
      "type": "function"
    }
  ],
  "bytecode": "0x60806040523061010460006101000a81548173ffffffffffffffffffffffffffffffffffffffff021916908373ffffffffffffffffffffffffffffffffffffffff160217905550600161010460156101000a81548160ff02191690831515021790555034801561006e57600080fd5b50604051610cd3380380610cd383398101806040528101908080518201929190602001805190602001909291905050508181600033600180610100811015156100b357fe5b0160006101000a81548173ffffffffffffffffffffffffffffffffffffffff021916908373ffffffffffffffffffffffffffffffffffffffff160217905550600161010160003373ffffffffffffffffffffffffffffffffffffffff1673ffffffffffffffffffffffffffffffffffffffff16815260200190815260200160002081905550600090505b825181101561021a57828181518110151561015457fe5b906020019060200201516001826002016101008110151561017157fe5b0160006101000a81548173ffffffffffffffffffffffffffffffffffffffff021916908373ffffffffffffffffffffffffffffffffffffffff16021790555080600201610101600085848151811015156101c757fe5b9060200190602002015173ffffffffffffffffffffffffffffffffffffffff1673ffffffffffffffffffffffffffffffffffffffff1681526020019081526020016000208190555080600101905061013d565b610100600054111561022b57600080fd5b816000819055505050505050610a8d806102466000396000f3006080604052600436106100af576000357c0100000000000000000000000000000000000000000000000000000000900463ffffffff1680632f54bf6e146100b457806363a599a41461010f57806375f12b2114610126578063788023ff1461015557806386d1a69f146101c5578063b75c7dc6146101dc578063bb4872de1461020d578063c2cf73261461023c578063c41a360a146102a5578063d08b89f314610312578063dc8452cd14610329575b600080fd5b3480156100c057600080fd5b506100f5600480360381019080803573ffffffffffffffffffffffffffffffffffffffff169060200190929190505050610354565b604051808215151515815260200191505060405180910390f35b34801561011b57600080fd5b506101246103a0565b005b34801561013257600080fd5b5061013b6103e6565b604051808215151515815260200191505060405180910390f35b34801561016157600080fd5b506101c360048036038101908080359060200190820180359060200190808060200260200160405190810160405280939291908181526020018383602002808284378201915050505050509192919290803590602001909291905050506103fa565b005b3480156101d157600080fd5b506101da610528565b005b3480156101e857600080fd5b5061020b600480360381019080803560001916906020019092919050505061058d565b005b34801561021957600080fd5b506102226106b7565b604051808215151515815260200191505060405180910390f35b34801561024857600080fd5b5061028b6004803603810190808035600019169060200190929190803573ffffffffffffffffffffffffffffffffffffffff1690602001909291905050506106cb565b604051808215151515815260200191505060405180910390f35b3480156102b157600080fd5b506102d060048036038101908080359060200190929190505050610761565b604051808273ffffffffffffffffffffffffffffffffffffffff1673ffffffffffffffffffffffffffffffffffffffff16815260200191505060405180910390f35b34801561031e57600080fd5b5061032761079e565b005b34801561033557600080fd5b5061033e6107ea565b6040518082815260200191505060405180910390f35b60008061010160008473ffffffffffffffffffffffffffffffffffffffff1673ffffffffffffffffffffffffffffffffffffffff16815260200190815260200160002054119050919050565b6103a933610354565b156103e45761010460159054906101000a900460ff1615156103c757fe5b600161010460146101000a81548160ff0219169083151502179055505b565b61010460149054906101000a900460ff1681565b60008036604051808383808284378201915050925050506040518091039020610422816107f0565b1561052257600091505b835182101561050957838281518110151561044357fe5b906020019060200201516001836001016101008110151561046057fe5b0160006101000a81548173ffffffffffffffffffffffffffffffffffffffff021916908373ffffffffffffffffffffffffffffffffffffffff16021790555081600101610101600086858151811015156104b657fe5b9060200190602002015173ffffffffffffffffffffffffffffffffffffffff1673ffffffffffffffffffffffffffffffffffffffff1681526020019081526020016000208190555081600101915061042c565b610100600054111561051a57600080fd5b826000819055505b50505050565b60003660405180838380828437820191505092505050604051809103902061054f816107f0565b1561058a5761010460159054906101000a900460ff16151561056d57fe5b600061010460146101000a81548160ff0219169083151502179055505b50565b600080600061010160003373ffffffffffffffffffffffffffffffffffffffff1673ffffffffffffffffffffffffffffffffffffffff16815260200190815260200160002054925060008314156105e3576106b1565b8260020a915061010260008560001916600019168152602001908152602001600020905060008282600101541611156106b05780600001600081548092919060010191905055508181600101600082825403925050819055507fc7fb647e59b18047309aa15aad418e5d7ca96d173ad704f1031a2c3d7591734b3385604051808373ffffffffffffffffffffffffffffffffffffffff1673ffffffffffffffffffffffffffffffffffffffff16815260200182600019166000191681526020019250505060405180910390a15b5b50505050565b61010460159054906101000a900460ff1681565b60008060008061010260008760001916600019168152602001908152602001600020925061010160008673ffffffffffffffffffffffffffffffffffffffff1673ffffffffffffffffffffffffffffffffffffffff16815260200190815260200160002054915060008214156107445760009350610758565b8160020a9050600081846001015416141593505b50505092915050565b600060018083016101008110151561077557fe5b0160009054906101000a900473ffffffffffffffffffffffffffffffffffffffff169050919050565b6000366040518083838082843782019150509250505060405180910390206107c5816107f0565b156107e757600061010460156101000a81548160ff0219169083151502179055505b50565b60005481565b60008060008061010160003373ffffffffffffffffffffffffffffffffffffffff1673ffffffffffffffffffffffffffffffffffffffff168152602001908152602001600020549250600083141561084757610a08565b6101026000866000191660001916815260200190815260200160002091506000826000015414156108cc57600054826000018190555060008260010181905550610103805480919060010161089c9190610a10565b82600201819055508461010383600201548154811015156108b957fe5b9060005260206000200181600019169055505b8260020a90506000818360010154161415610a07577fe1c52dc63b719ade82e8bea94cc41a0d5d28e4aaf536adb5e9cccc9ff8c1aeda3386604051808373ffffffffffffffffffffffffffffffffffffffff1673ffffffffffffffffffffffffffffffffffffffff16815260200182600019166000191681526020019250505060405180910390a1600182600001541115156109df57610103610102600087600019166000191681526020019081526020016000206002015481548110151561099157fe5b90600052602060002001600090556101026000866000191660001916815260200190815260200160002060008082016000905560018201600090556002820160009055505060019350610a08565b8160000160008154809291906001900391905055508082600101600082825417925050819055505b5b505050919050565b815481835581811115610a3757818360005260206000209182019101610a369190610a3c565b5b505050565b610a5e91905b80821115610a5a576000816000905550600101610a42565b5090565b905600a165627a7a7230582038e4900e99bddb9972e4555bff4cfa282f5b04f8852fe16286ec24f29b287f490029",
  "source": "pragma solidity ^0.4.11;\n\nimport \"contracts/Shareable.sol\";\n\n// From OpenZepplin: https://github.com/OpenZeppelin/zeppelin-solidity/blob/master/contracts/lifecycle/Pausable.sol\n/*\n * Stoppable\n * Abstract contract that allows children to implement an\n * emergency stop mechanism.\n */\ncontract StoppableShareable is Shareable {\n  bool public stopped;\n  bool public stoppable = true;\n\n  modifier stopInEmergency { if (!stopped) _; }\n  modifier onlyInEmergency { if (stopped) _; }\n\n  function StoppableShareable(address[] _owners, uint _required) Shareable(_owners, _required) {\n  }\n\n  // called by the owner on emergency, triggers stopped state\n  function emergencyStop() external onlyOwner {\n    assert(stoppable);\n    stopped = true;\n  }\n\n  // called by the owners on end of emergency, returns to normal state\n  function release() external onlyManyOwners(sha3(msg.data)) {\n    assert(stoppable);\n    stopped = false;\n  }\n\n  // called by the owners to disable ability to begin or end an emergency stop\n  function disableStopping() external onlyManyOwners(sha3(msg.data)) {\n    stoppable = false;\n  }\n}\n",
  "sourcePath": "contracts/StoppableShareable.sol",
  "compiler": {
    "name": "solc",
    "version": "0.4.25+commit.59dbf8f1.Emscripten.clang",
    "optimizer": false,
    "runs": 200
  },
  "schemaVersion": "2.1.2",
  "updatedAt": "2019-07-01T19:19:16.559Z"
}