{
  "contractName": "UpgradeDelegate",
  "abi": [
    {
      "constant": true,
      "inputs": [],
      "name": "name",
      "outputs": [
        {
          "name": "",
          "type": "string"
        }
      ],
      "payable": false,
      "stateMutability": "view",
      "type": "function"
    },
    {
      "constant": true,
      "inputs": [],
      "name": "totalSupply",
      "outputs": [
        {
          "name": "",
          "type": "uint256"
        }
      ],
      "payable": false,
      "stateMutability": "view",
      "type": "function"
    },
    {
      "constant": true,
      "inputs": [],
      "name": "numerai",
      "outputs": [
        {
          "name": "",
          "type": "address"
        }
      ],
      "payable": false,
      "stateMutability": "view",
      "type": "function"
    },
    {
      "constant": true,
      "inputs": [
        {
          "name": "_addr",
          "type": "address"
        }
      ],
      "name": "isOwner",
      "outputs": [
        {
          "name": "",
          "type": "bool"
        }
      ],
      "payable": false,
      "stateMutability": "view",
      "type": "function"
    },
    {
      "constant": true,
      "inputs": [],
      "name": "decimals",
      "outputs": [
        {
          "name": "",
          "type": "uint256"
        }
      ],
      "payable": false,
      "stateMutability": "view",
      "type": "function"
    },
    {
      "constant": true,
      "inputs": [],
      "name": "delegateContract",
      "outputs": [
        {
          "name": "",
          "type": "address"
        }
      ],
      "payable": false,
      "stateMutability": "view",
      "type": "function"
    },
    {
      "constant": true,
      "inputs": [],
      "name": "standard",
      "outputs": [
        {
          "name": "",
          "type": "string"
        }
      ],
      "payable": false,
      "stateMutability": "view",
      "type": "function"
    },
    {
      "constant": false,
      "inputs": [],
      "name": "emergencyStop",
      "outputs": [],
      "payable": false,
      "stateMutability": "nonpayable",
      "type": "function"
    },
    {
      "constant": true,
      "inputs": [
        {
          "name": "",
          "type": "address"
        }
      ],
      "name": "balanceOf",
      "outputs": [
        {
          "name": "",
          "type": "uint256"
        }
      ],
      "payable": false,
      "stateMutability": "view",
      "type": "function"
    },
    {
      "constant": true,
      "inputs": [
        {
          "name": "",
          "type": "uint256"
        }
      ],
      "name": "tournaments",
      "outputs": [
        {
          "name": "creationTime",
          "type": "uint256"
        }
      ],
      "payable": false,
      "stateMutability": "view",
      "type": "function"
    },
    {
      "constant": true,
      "inputs": [],
      "name": "stopped",
      "outputs": [
        {
          "name": "",
          "type": "bool"
        }
      ],
      "payable": false,
      "stateMutability": "view",
      "type": "function"
    },
    {
      "constant": false,
      "inputs": [
        {
          "name": "_owners",
          "type": "address[]"
        },
        {
          "name": "_required",
          "type": "uint256"
        }
      ],
      "name": "changeShareable",
      "outputs": [],
      "payable": false,
      "stateMutability": "nonpayable",
      "type": "function"
    },
    {
      "constant": true,
      "inputs": [],
      "name": "contractUpgradable",
      "outputs": [
        {
          "name": "",
          "type": "bool"
        }
      ],
      "payable": false,
      "stateMutability": "view",
      "type": "function"
    },
    {
      "constant": false,
      "inputs": [],
      "name": "release",
      "outputs": [],
      "payable": false,
      "stateMutability": "nonpayable",
      "type": "function"
    },
    {
      "constant": true,
      "inputs": [],
      "name": "initial_disbursement",
      "outputs": [
        {
          "name": "",
          "type": "uint256"
        }
      ],
      "payable": false,
      "stateMutability": "view",
      "type": "function"
    },
    {
      "constant": true,
      "inputs": [],
      "name": "symbol",
      "outputs": [
        {
          "name": "",
          "type": "string"
        }
      ],
      "payable": false,
      "stateMutability": "view",
      "type": "function"
    },
    {
      "constant": true,
      "inputs": [],
      "name": "weekly_disbursement",
      "outputs": [
        {
          "name": "",
          "type": "uint256"
        }
      ],
      "payable": false,
      "stateMutability": "view",
      "type": "function"
    },
    {
      "constant": true,
      "inputs": [],
      "name": "deploy_time",
      "outputs": [
        {
          "name": "",
          "type": "uint256"
        }
      ],
      "payable": false,
      "stateMutability": "view",
      "type": "function"
    },
    {
      "constant": false,
      "inputs": [
        {
          "name": "_operation",
          "type": "bytes32"
        }
      ],
      "name": "revoke",
      "outputs": [],
      "payable": false,
      "stateMutability": "nonpayable",
      "type": "function"
    },
    {
      "constant": true,
      "inputs": [],
      "name": "stoppable",
      "outputs": [
        {
          "name": "",
          "type": "bool"
        }
      ],
      "payable": false,
      "stateMutability": "view",
      "type": "function"
    },
    {
      "constant": true,
      "inputs": [],
      "name": "total_minted",
      "outputs": [
        {
          "name": "",
          "type": "uint256"
        }
      ],
      "payable": false,
      "stateMutability": "view",
      "type": "function"
    },
    {
      "constant": true,
      "inputs": [
        {
          "name": "_operation",
          "type": "bytes32"
        },
        {
          "name": "_owner",
          "type": "address"
        }
      ],
      "name": "hasConfirmed",
      "outputs": [
        {
          "name": "",
          "type": "bool"
        }
      ],
      "payable": false,
      "stateMutability": "view",
      "type": "function"
    },
    {
      "constant": true,
      "inputs": [
        {
          "name": "ownerIndex",
          "type": "uint256"
        }
      ],
      "name": "getOwner",
      "outputs": [
        {
          "name": "",
          "type": "address"
        }
      ],
      "payable": false,
      "stateMutability": "view",
      "type": "function"
    },
    {
      "constant": false,
      "inputs": [],
      "name": "disableStopping",
      "outputs": [],
      "payable": false,
      "stateMutability": "nonpayable",
      "type": "function"
    },
    {
      "constant": true,
      "inputs": [],
      "name": "required",
      "outputs": [
        {
          "name": "",
          "type": "uint256"
        }
      ],
      "payable": false,
      "stateMutability": "view",
      "type": "function"
    },
    {
      "constant": true,
      "inputs": [
        {
          "name": "",
          "type": "address"
        },
        {
          "name": "",
          "type": "address"
        }
      ],
      "name": "allowance",
      "outputs": [
        {
          "name": "",
          "type": "uint256"
        }
      ],
      "payable": false,
      "stateMutability": "view",
      "type": "function"
    },
    {
      "constant": true,
      "inputs": [],
      "name": "supply_cap",
      "outputs": [
        {
          "name": "",
          "type": "uint256"
        }
      ],
      "payable": false,
      "stateMutability": "view",
      "type": "function"
    },
    {
      "constant": true,
      "inputs": [],
      "name": "getMintable",
      "outputs": [
        {
          "name": "",
          "type": "uint256"
        }
      ],
      "payable": false,
      "stateMutability": "view",
      "type": "function"
    },
    {
      "constant": true,
      "inputs": [
        {
          "name": "",
          "type": "uint256"
        }
      ],
      "name": "previousDelegates",
      "outputs": [
        {
          "name": "",
          "type": "address"
        }
      ],
      "payable": false,
      "stateMutability": "view",
      "type": "function"
    },
    {
      "inputs": [
        {
          "name": "_owners",
          "type": "address[]"
        },
        {
          "name": "_num_required",
          "type": "uint256"
        }
      ],
      "payable": false,
      "stateMutability": "nonpayable",
      "type": "constructor"
    },
    {
      "payable": true,
      "stateMutability": "payable",
      "type": "fallback"
    },
    {
      "anonymous": false,
      "inputs": [
        {
          "indexed": false,
          "name": "oldAddress",
          "type": "address"
        },
        {
          "indexed": false,
          "name": "newAddress",
          "type": "address"
        }
      ],
      "name": "DelegateChanged",
      "type": "event"
    },
    {
      "anonymous": false,
      "inputs": [
        {
          "indexed": false,
          "name": "value",
          "type": "uint256"
        }
      ],
      "name": "Mint",
      "type": "event"
    },
    {
      "anonymous": false,
      "inputs": [
        {
          "indexed": true,
          "name": "from",
          "type": "address"
        },
        {
          "indexed": true,
          "name": "to",
          "type": "address"
        },
        {
          "indexed": false,
          "name": "value",
          "type": "uint256"
        }
      ],
      "name": "Transfer",
      "type": "event"
    },
    {
      "anonymous": false,
      "inputs": [
        {
          "indexed": true,
          "name": "owner",
          "type": "address"
        },
        {
          "indexed": true,
          "name": "spender",
          "type": "address"
        },
        {
          "indexed": false,
          "name": "value",
          "type": "uint256"
        }
      ],
      "name": "Approval",
      "type": "event"
    },
    {
      "anonymous": false,
      "inputs": [
        {
          "indexed": true,
          "name": "staker",
          "type": "address"
        },
        {
          "indexed": false,
          "name": "tag",
          "type": "bytes32"
        },
        {
          "indexed": false,
          "name": "totalAmountStaked",
          "type": "uint256"
        },
        {
          "indexed": false,
          "name": "confidence",
          "type": "uint256"
        },
        {
          "indexed": true,
          "name": "tournamentID",
          "type": "uint256"
        },
        {
          "indexed": true,
          "name": "roundID",
          "type": "uint256"
        }
      ],
      "name": "Staked",
      "type": "event"
    },
    {
      "anonymous": false,
      "inputs": [
        {
          "indexed": true,
          "name": "tournamentID",
          "type": "uint256"
        },
        {
          "indexed": true,
          "name": "roundID",
          "type": "uint256"
        },
        {
          "indexed": false,
          "name": "endTime",
          "type": "uint256"
        },
        {
          "indexed": false,
          "name": "resolutionTime",
          "type": "uint256"
        }
      ],
      "name": "RoundCreated",
      "type": "event"
    },
    {
      "anonymous": false,
      "inputs": [
        {
          "indexed": true,
          "name": "tournamentID",
          "type": "uint256"
        }
      ],
      "name": "TournamentCreated",
      "type": "event"
    },
    {
      "anonymous": false,
      "inputs": [
        {
          "indexed": true,
          "name": "tournamentID",
          "type": "uint256"
        },
        {
          "indexed": true,
          "name": "roundID",
          "type": "uint256"
        },
        {
          "indexed": true,
          "name": "stakerAddress",
          "type": "address"
        },
        {
          "indexed": false,
          "name": "tag",
          "type": "bytes32"
        }
      ],
      "name": "StakeDestroyed",
      "type": "event"
    },
    {
      "anonymous": false,
      "inputs": [
        {
          "indexed": true,
          "name": "tournamentID",
          "type": "uint256"
        },
        {
          "indexed": true,
          "name": "roundID",
          "type": "uint256"
        },
        {
          "indexed": true,
          "name": "stakerAddress",
          "type": "address"
        },
        {
          "indexed": false,
          "name": "tag",
          "type": "bytes32"
        },
        {
          "indexed": false,
          "name": "etherReward",
          "type": "uint256"
        }
      ],
      "name": "StakeReleased",
      "type": "event"
    },
    {
      "anonymous": false,
      "inputs": [
        {
          "indexed": false,
          "name": "owner",
          "type": "address"
        },
        {
          "indexed": false,
          "name": "operation",
          "type": "bytes32"
        }
      ],
      "name": "Confirmation",
      "type": "event"
    },
    {
      "anonymous": false,
      "inputs": [
        {
          "indexed": false,
          "name": "owner",
          "type": "address"
        },
        {
          "indexed": false,
          "name": "operation",
          "type": "bytes32"
        }
      ],
      "name": "Revoke",
      "type": "event"
    },
    {
      "constant": false,
      "inputs": [
        {
          "name": "multiSig",
          "type": "address"
        },
        {
          "name": "",
          "type": "uint256"
        }
      ],
      "name": "numeraiTransfer",
      "outputs": [
        {
          "name": "ok",
          "type": "bool"
        }
      ],
      "payable": false,
      "stateMutability": "nonpayable",
      "type": "function"
    },
    {
      "constant": false,
      "inputs": [
        {
          "name": "_tournamentID",
          "type": "uint256"
        },
        {
          "name": "_numRounds",
          "type": "uint256"
        },
        {
          "name": "",
          "type": "uint256"
        },
        {
          "name": "",
          "type": "uint256"
        }
      ],
      "name": "createRound",
      "outputs": [
        {
          "name": "ok",
          "type": "bool"
        }
      ],
      "payable": false,
      "stateMutability": "nonpayable",
      "type": "function"
    },
    {
      "constant": false,
      "inputs": [
        {
          "name": "_staker",
          "type": "address"
        },
        {
          "name": "_tag",
          "type": "bytes32"
        },
        {
          "name": "_tournamentID",
          "type": "uint256"
        },
        {
          "name": "_roundID",
          "type": "uint256"
        }
      ],
      "name": "destroyStake",
      "outputs": [
        {
          "name": "ok",
          "type": "bool"
        }
      ],
      "payable": false,
      "stateMutability": "nonpayable",
      "type": "function"
    },
    {
      "constant": false,
      "inputs": [
        {
          "name": "",
          "type": "address"
        },
        {
          "name": "",
          "type": "address"
        },
        {
          "name": "_stakeAmt",
          "type": "uint256"
        }
      ],
      "name": "withdraw",
      "outputs": [
        {
          "name": "ok",
          "type": "bool"
        }
      ],
      "payable": false,
      "stateMutability": "nonpayable",
      "type": "function"
    },
    {
      "constant": true,
      "inputs": [
        {
          "name": "",
          "type": "uint256"
        }
      ],
      "name": "mint",
      "outputs": [
        {
          "name": "",
          "type": "bool"
        }
      ],
      "payable": false,
      "stateMutability": "pure",
      "type": "function"
    },
    {
      "constant": true,
      "inputs": [
        {
          "name": "",
          "type": "address"
        },
        {
          "name": "",
          "type": "bytes32"
        },
        {
          "name": "",
          "type": "uint256"
        },
        {
          "name": "",
          "type": "uint256"
        },
        {
          "name": "",
          "type": "uint256"
        },
        {
          "name": "",
          "type": "bool"
        }
      ],
      "name": "releaseStake",
      "outputs": [
        {
          "name": "",
          "type": "bool"
        }
      ],
      "payable": false,
      "stateMutability": "pure",
      "type": "function"
    },
    {
      "constant": true,
      "inputs": [
        {
          "name": "",
          "type": "uint256"
        },
        {
          "name": "",
          "type": "bytes32"
        },
        {
          "name": "",
          "type": "uint256"
        },
        {
          "name": "",
          "type": "uint256"
        },
        {
          "name": "",
          "type": "uint256"
        }
      ],
      "name": "stake",
      "outputs": [
        {
          "name": "",
          "type": "bool"
        }
      ],
      "payable": false,
      "stateMutability": "pure",
      "type": "function"
    },
    {
      "constant": true,
      "inputs": [
        {
          "name": "",
          "type": "address"
        },
        {
          "name": "",
          "type": "uint256"
        },
        {
          "name": "",
          "type": "bytes32"
        },
        {
          "name": "",
          "type": "uint256"
        },
        {
          "name": "",
          "type": "uint256"
        },
        {
          "name": "",
          "type": "uint256"
        }
      ],
      "name": "stakeOnBehalf",
      "outputs": [
        {
          "name": "",
          "type": "bool"
        }
      ],
      "payable": false,
      "stateMutability": "pure",
      "type": "function"
    },
    {
      "constant": true,
      "inputs": [
        {
          "name": "",
          "type": "uint256"
        }
      ],
      "name": "createTournament",
      "outputs": [
        {
          "name": "",
          "type": "bool"
        }
      ],
      "payable": false,
      "stateMutability": "pure",
      "type": "function"
    }
  ],
  "bytecode": "0x60806040523061010460006101000a81548173ffffffffffffffffffffffffffffffffffffffff021916908373ffffffffffffffffffffffffffffffffffffffff160217905550600161010460156101000a81548160ff0219169083151502179055503061010560006101000a81548173ffffffffffffffffffffffffffffffffffffffff021916908373ffffffffffffffffffffffffffffffffffffffff1602179055506a115eec47f6cf7e350000006101065569145c82ac800328189d8961010755348015620000d057600080fd5b506040516200597738038062005977833981018060405281019080805182019291906020018051906020019092919050505081818181600033600180610100811015156200011a57fe5b0160006101000a81548173ffffffffffffffffffffffffffffffffffffffff021916908373ffffffffffffffffffffffffffffffffffffffff160217905550600161010160003373ffffffffffffffffffffffffffffffffffffffff1673ffffffffffffffffffffffffffffffffffffffff16815260200190815260200160002081905550600090505b825181101562000286578281815181101515620001bd57fe5b9060200190602002015160018260020161010081101515620001db57fe5b0160006101000a81548173ffffffffffffffffffffffffffffffffffffffff021916908373ffffffffffffffffffffffffffffffffffffffff16021790555080600201610101600085848151811015156200023257fe5b9060200190602002015173ffffffffffffffffffffffffffffffffffffffff1673ffffffffffffffffffffffffffffffffffffffff16815260200190815260200160002081905550806001019050620001a4565b61010060005411156200029857600080fd5b816000819055505050505050733361f79f0819fd5feaa37bea44c8a33d98b2a1cd73ffffffffffffffffffffffffffffffffffffffff163073ffffffffffffffffffffffffffffffffffffffff1614151562000382576040517f08c379a00000000000000000000000000000000000000000000000000000000081526004018080602001828103825260408152602001807f696e636f7272656374206465706c6f796d656e742061646472657373202d206381526020017f6865636b207375626d697474696e67206163636f756e742026206e6f6e63652e81525060400191505060405180910390fd5b50506155e380620003946000396000f3006080604052600436106101d8576000357c0100000000000000000000000000000000000000000000000000000000900463ffffffff16806306fdde03146101da57806318160ddd1461026a57806329684907146102955780632f54bf6e146102ec578063313ce567146103475780633c2b0725146103725780635a3b7e42146103c95780635bc91b2f146104595780635c251cbf146104bc57806363a599a41461054f57806363ff195d1461056657806370a08231146105f75780637503e1b71461064e57806375f12b211461068f578063788023ff146106be57806378b150bd1461072e5780637c8d56b81461075d57806386d1a69f146107c25780638b1d67f9146107d95780638b93d3fc1461080457806395d89b41146108755780639e20afdf14610905578063a0712d6814610930578063a425b75214610975578063a5d8cdf2146109f2578063b75c7dc614610a1d578063bb4872de14610a4e578063be17be5d14610a7d578063c2cf732614610aa8578063c41a360a14610b11578063d08b89f314610b7e578063d9caed1214610b95578063dc8452cd14610c1a578063dd20a53e14610c45578063dd62ed3e14610c8a578063eaac77ea14610d01578063f698bceb14610d2c578063fbd2dbad14610d57575b005b3480156101e657600080fd5b506101ef610dc4565b6040518080602001828103825283818151815260200191508051906020019080838360005b8381101561022f578082015181840152602081019050610214565b50505050905090810190601f16801561025c5780820380516001836020036101000a031916815260200191505b509250505060405180910390f35b34801561027657600080fd5b5061027f610e63565b6040518082815260200191505060405180910390f35b3480156102a157600080fd5b506102aa610e6a565b604051808273ffffffffffffffffffffffffffffffffffffffff1673ffffffffffffffffffffffffffffffffffffffff16815260200191505060405180910390f35b3480156102f857600080fd5b5061032d600480360381019080803573ffffffffffffffffffffffffffffffffffffffff169060200190929190505050610e91565b604051808215151515815260200191505060405180910390f35b34801561035357600080fd5b5061035c610edd565b6040518082815260200191505060405180910390f35b34801561037e57600080fd5b50610387610ee4565b604051808273ffffffffffffffffffffffffffffffffffffffff1673ffffffffffffffffffffffffffffffffffffffff16815260200191505060405180910390f35b3480156103d557600080fd5b506103de610f0b565b6040518080602001828103825283818151815260200191508051906020019080838360005b8381101561041e578082015181840152602081019050610403565b50505050905090810190601f16801561044b5780820380516001836020036101000a031916815260200191505b509250505060405180910390f35b34801561046557600080fd5b506104a260048036038101908080359060200190929190803590602001909291908035906020019092919080359060200190929190505050610faa565b604051808215151515815260200191505060405180910390f35b3480156104c857600080fd5b50610535600480360381019080803573ffffffffffffffffffffffffffffffffffffffff1690602001909291908035600019169060200190929190803590602001909291908035906020019092919080359060200190929190803515159060200190929190505050611110565b604051808215151515815260200191505060405180910390f35b34801561055b57600080fd5b50610564611117565b005b34801561057257600080fd5b506105dd600480360381019080803573ffffffffffffffffffffffffffffffffffffffff16906020019092919080359060200190929190803560001916906020019092919080359060200190929190803590602001909291908035906020019092919050505061115d565b604051808215151515815260200191505060405180910390f35b34801561060357600080fd5b50610638600480360381019080803573ffffffffffffffffffffffffffffffffffffffff169060200190929190505050611164565b6040518082815260200191505060405180910390f35b34801561065a57600080fd5b506106796004803603810190808035906020019092919050505061117d565b6040518082815260200191505060405180910390f35b34801561069b57600080fd5b506106a461119c565b604051808215151515815260200191505060405180910390f35b3480156106ca57600080fd5b5061072c60048036038101908080359060200190820180359060200190808060200260200160405190810160405280939291908181526020018383602002808284378201915050505050509192919290803590602001909291905050506111b0565b005b34801561073a57600080fd5b506107436112de565b604051808215151515815260200191505060405180910390f35b34801561076957600080fd5b506107a8600480360381019080803573ffffffffffffffffffffffffffffffffffffffff169060200190929190803590602001909291905050506112f2565b604051808215151515815260200191505060405180910390f35b3480156107ce57600080fd5b506107d7614756565b005b3480156107e557600080fd5b506107ee6147bb565b6040518082815260200191505060405180910390f35b34801561081057600080fd5b5061085b6004803603810190808035906020019092919080356000191690602001909291908035906020019092919080359060200190929190803590602001909291905050506147c2565b604051808215151515815260200191505060405180910390f35b34801561088157600080fd5b5061088a6147c9565b6040518080602001828103825283818151815260200191508051906020019080838360005b838110156108ca5780820151818401526020810190506108af565b50505050905090810190601f1680156108f75780820380516001836020036101000a031916815260200191505b509250505060405180910390f35b34801561091157600080fd5b5061091a614868565b6040518082815260200191505060405180910390f35b34801561093c57600080fd5b5061095b6004803603810190808035906020019092919050505061486f565b604051808215151515815260200191505060405180910390f35b34801561098157600080fd5b506109d8600480360381019080803573ffffffffffffffffffffffffffffffffffffffff16906020019092919080356000191690602001909291908035906020019092919080359060200190929190505050614876565b604051808215151515815260200191505060405180910390f35b3480156109fe57600080fd5b50610a076149c4565b6040518082815260200191505060405180910390f35b348015610a2957600080fd5b50610a4c60048036038101908080356000191690602001909291905050506149cb565b005b348015610a5a57600080fd5b50610a63614af5565b604051808215151515815260200191505060405180910390f35b348015610a8957600080fd5b50610a92614b09565b6040518082815260200191505060405180910390f35b348015610ab457600080fd5b50610af76004803603810190808035600019169060200190929190803573ffffffffffffffffffffffffffffffffffffffff169060200190929190505050614b10565b604051808215151515815260200191505060405180910390f35b348015610b1d57600080fd5b50610b3c60048036038101908080359060200190929190505050614ba6565b604051808273ffffffffffffffffffffffffffffffffffffffff1673ffffffffffffffffffffffffffffffffffffffff16815260200191505060405180910390f35b348015610b8a57600080fd5b50610b93614be3565b005b348015610ba157600080fd5b50610c00600480360381019080803573ffffffffffffffffffffffffffffffffffffffff169060200190929190803573ffffffffffffffffffffffffffffffffffffffff16906020019092919080359060200190929190505050614c2f565b604051808215151515815260200191505060405180910390f35b348015610c2657600080fd5b50610c2f614dab565b6040518082815260200191505060405180910390f35b348015610c5157600080fd5b50610c7060048036038101908080359060200190929190505050614db1565b604051808215151515815260200191505060405180910390f35b348015610c9657600080fd5b50610ceb600480360381019080803573ffffffffffffffffffffffffffffffffffffffff169060200190929190803573ffffffffffffffffffffffffffffffffffffffff169060200190929190505050614db8565b6040518082815260200191505060405180910390f35b348015610d0d57600080fd5b50610d16614dde565b6040518082815260200191505060405180910390f35b348015610d3857600080fd5b50610d41614de5565b6040518082815260200191505060405180910390f35b348015610d6357600080fd5b50610d8260048036038101908080359060200190929190505050614e2b565b604051808273ffffffffffffffffffffffffffffffffffffffff1673ffffffffffffffffffffffffffffffffffffffff16815260200191505060405180910390f35b6101128054600181600116156101000203166002900480601f016020809104026020016040519081016040528092919081815260200182805460018160011615610100020316600290048015610e5b5780601f10610e3057610100808354040283529160200191610e5b565b820191906000526020600020905b815481529060010190602001808311610e3e57829003601f168201915b505050505081565b61010b5481565b61010560009054906101000a900473ffffffffffffffffffffffffffffffffffffffff1681565b60008061010160008473ffffffffffffffffffffffffffffffffffffffff1673ffffffffffffffffffffffffffffffffffffffff16815260200190815260200160002054119050919050565b6101145481565b61010f60009054906101000a900473ffffffffffffffffffffffffffffffffffffffff1681565b6101118054600181600116156101000203166002900480601f016020809104026020016040519081016040528092919081815260200182805460018160011615610100020316600290048015610fa25780601f10610f7757610100808354040283529160200191610fa2565b820191906000526020600020905b815481529060010190602001808311610f8557829003601f168201915b505050505081565b600080600080739dce896ddc20ba883600176678cbee2b8ba188a973ffffffffffffffffffffffffffffffffffffffff163373ffffffffffffffffffffffffffffffffffffffff16141515610ffe57600080fd5b61010e600089815260200190815260200160002060010180549050871115151561102757600080fd5b600192505b86831115156111015761010e600089815260200190815260200160002060010180549050915061010e60008981526020019081526020016000206001016001830381548110151561107957fe5b9060005260206000200154905061010e6000898152602001908152602001600020600201600082815260200190815260200160002060008082016000905560018201600090556002820160009055505061010e60008981526020019081526020016000206001018054809190600190036110f39190615443565b50828060010193505061102c565b60019350505050949350505050565b6000806000fd5b61112033610e91565b1561115b5761010460159054906101000a900460ff16151561113e57fe5b600161010460146101000a81548160ff0219169083151502179055505b565b6000806000fd5b61010c6020528060005260406000206000915090505481565b61010e6020528060005260406000206000915090508060000154905081565b61010460149054906101000a900460ff1681565b600080366040518083838082843782019150509250505060405180910390206111d881614e6a565b156112d857600091505b83518210156112bf5783828151811015156111f957fe5b906020019060200201516001836001016101008110151561121657fe5b0160006101000a81548173ffffffffffffffffffffffffffffffffffffffff021916908373ffffffffffffffffffffffffffffffffffffffff160217905550816001016101016000868581518110151561126c57fe5b9060200190602002015173ffffffffffffffffffffffffffffffffffffffff1673ffffffffffffffffffffffffffffffffffffffff168152602001908152602001600020819055508160010191506111e2565b61010060005411156112d057600080fd5b826000819055505b50505050565b61010f60149054906101000a900460ff1681565b6000806112fd61546f565b611305615493565b61130d6154b7565b60008060008060008061131e6154db565b600073249e479b571fea3de01f186cf22383a79b21ca7f73ffffffffffffffffffffffffffffffffffffffff163373ffffffffffffffffffffffffffffffffffffffff1614151561136e57600080fd5b7329f709e42c95c604ba76e73316d325077f8eb7b29b506113cf3061010c60003073ffffffffffffffffffffffffffffffffffffffff1673ffffffffffffffffffffffffffffffffffffffff1681526020019081526020016000205461508a565b61141a600061010c60008073ffffffffffffffffffffffffffffffffffffffff1673ffffffffffffffffffffffffffffffffffffffff1681526020019081526020016000205461508a565b610ae060405190810160405280600260ff1660ff168152602001600260ff1660ff168152602001600360ff1660ff168152602001600460ff1660ff168152602001600260ff1660ff168152602001600360ff1660ff168152602001600460ff1660ff168152602001600360ff1660ff168152602001600460ff1660ff168152602001600460ff1660ff168152602001600260ff1660ff168152602001600360ff1660ff168152602001600460ff1660ff168152602001600360ff1660ff168152602001600260ff1660ff168152602001600660ff1660ff168152602001600760ff1660ff168152602001600860ff1660ff168152602001600960ff1660ff168152602001600b60ff1660ff168152602001600c60ff1660ff168152602001600d60ff1660ff168152602001601160ff1660ff168152602001601260ff1660ff168152602001601360ff1660ff168152602001601460ff1660ff168152602001601560ff1660ff168152602001601660ff1660ff168152602001601760ff1660ff168152602001601860ff1660ff168152602001600e60ff1660ff168152602001600f60ff1660ff168152602001601060ff1660ff168152602001601960ff1660ff168152602001601a60ff1660ff168152602001601b60ff1660ff168152602001601c60ff1660ff168152602001601d60ff1660ff168152602001603660ff1660ff168152602001600460ff1660ff168152602001600260ff1660ff168152602001600360ff1660ff168152602001600a60ff1660ff168152602001600260ff1660ff168152602001600360ff1660ff168152602001600460ff1660ff168152602001600260ff1660ff168152602001600360ff1660ff168152602001600460ff1660ff168152602001601160ff1660ff168152602001601260ff1660ff168152602001601360ff1660ff168152602001601e60ff1660ff168152602001601f60ff1660ff168152602001602060ff1660ff168152602001602160ff1660ff168152602001602260ff1660ff168152602001602360ff1660ff168152602001602460ff1660ff168152602001602560ff1660ff168152602001601460ff1660ff168152602001601560ff1660ff168152602001601660ff1660ff168152602001601760ff1660ff168152602001601860ff1660ff168152602001601960ff1660ff168152602001601a60ff1660ff168152602001601b60ff1660ff168152602001601c60ff1660ff168152602001601d60ff1660ff168152602001602660ff1660ff168152602001602760ff1660ff168152602001602860ff1660ff168152602001602960ff1660ff168152602001602a60ff1660ff168152602001603560ff1660ff168152602001602b60ff1660ff168152602001602c60ff1660ff168152602001602d60ff1660ff168152602001602e60ff1660ff168152602001602f60ff1660ff168152602001603060ff1660ff168152602001603160ff1660ff168152602001603260ff1660ff168152602001603360ff1660ff168152602001603460ff1660ff168152602001600560ff1660ff168152509a50610ae0604051908101604052806107e073ffffffffffffffffffffffffffffffffffffffff1673ffffffffffffffffffffffffffffffffffffffff168152602001614c4c73ffffffffffffffffffffffffffffffffffffffff1673ffffffffffffffffffffffffffffffffffffffff1681526020016107e073ffffffffffffffffffffffffffffffffffffffff1673ffffffffffffffffffffffffffffffffffffffff1681526020016107e073ffffffffffffffffffffffffffffffffffffffff1673ffffffffffffffffffffffffffffffffffffffff168152602001614ab473ffffffffffffffffffffffffffffffffffffffff1673ffffffffffffffffffffffffffffffffffffffff168152602001614ab473ffffffffffffffffffffffffffffffffffffffff1673ffffffffffffffffffffffffffffffffffffffff168152602001614ab473ffffffffffffffffffffffffffffffffffffffff1673ffffffffffffffffffffffffffffffffffffffff168152602001614ab973ffffffffffffffffffffffffffffffffffffffff1673ffffffffffffffffffffffffffffffffffffffff168152602001614ab973ffffffffffffffffffffffffffffffffffffffff1673ffffffffffffffffffffffffffffffffffffffff168152602001614c4c73ffffffffffffffffffffffffffffffffffffffff1673ffffffffffffffffffffffffffffffffffffffff168152602001614ab673ffffffffffffffffffffffffffffffffffffffff1673ffffffffffffffffffffffffffffffffffffffff168152602001614ab673ffffffffffffffffffffffffffffffffffffffff1673ffffffffffffffffffffffffffffffffffffffff168152602001614ab673ffffffffffffffffffffffffffffffffffffffff1673ffffffffffffffffffffffffffffffffffffffff168152602001614c4c73ffffffffffffffffffffffffffffffffffffffff1673ffffffffffffffffffffffffffffffffffffffff168152602001614ab973ffffffffffffffffffffffffffffffffffffffff1673ffffffffffffffffffffffffffffffffffffffff1681526020016201cb7173ffffffffffffffffffffffffffffffffffffffff1673ffffffffffffffffffffffffffffffffffffffff1681526020016201cb7173ffffffffffffffffffffffffffffffffffffffff1673ffffffffffffffffffffffffffffffffffffffff1681526020016201cb7173ffffffffffffffffffffffffffffffffffffffff1673ffffffffffffffffffffffffffffffffffffffff1681526020016201cb7173ffffffffffffffffffffffffffffffffffffffff1673ffffffffffffffffffffffffffffffffffffffff1681526020016201cb7173ffffffffffffffffffffffffffffffffffffffff1673ffffffffffffffffffffffffffffffffffffffff1681526020016201cb7173ffffffffffffffffffffffffffffffffffffffff1673ffffffffffffffffffffffffffffffffffffffff1681526020016201cb7173ffffffffffffffffffffffffffffffffffffffff1673ffffffffffffffffffffffffffffffffffffffff1681526020016201cb7173ffffffffffffffffffffffffffffffffffffffff1673ffffffffffffffffffffffffffffffffffffffff1681526020016201cb7173ffffffffffffffffffffffffffffffffffffffff1673ffffffffffffffffffffffffffffffffffffffff1681526020016201cb7173ffffffffffffffffffffffffffffffffffffffff1673ffffffffffffffffffffffffffffffffffffffff1681526020016201cb7173ffffffffffffffffffffffffffffffffffffffff1673ffffffffffffffffffffffffffffffffffffffff1681526020016201cb7173ffffffffffffffffffffffffffffffffffffffff1673ffffffffffffffffffffffffffffffffffffffff1681526020016201cb7173ffffffffffffffffffffffffffffffffffffffff1673ffffffffffffffffffffffffffffffffffffffff1681526020016201cb7173ffffffffffffffffffffffffffffffffffffffff1673ffffffffffffffffffffffffffffffffffffffff1681526020016201cb7173ffffffffffffffffffffffffffffffffffffffff1673ffffffffffffffffffffffffffffffffffffffff1681526020016201cb7173ffffffffffffffffffffffffffffffffffffffff1673ffffffffffffffffffffffffffffffffffffffff1681526020016201cb7173ffffffffffffffffffffffffffffffffffffffff1673ffffffffffffffffffffffffffffffffffffffff1681526020016201cb7173ffffffffffffffffffffffffffffffffffffffff1673ffffffffffffffffffffffffffffffffffffffff1681526020016201cb7173ffffffffffffffffffffffffffffffffffffffff1673ffffffffffffffffffffffffffffffffffffffff1681526020016201cb7173ffffffffffffffffffffffffffffffffffffffff1673ffffffffffffffffffffffffffffffffffffffff1681526020016201cb7173ffffffffffffffffffffffffffffffffffffffff1673ffffffffffffffffffffffffffffffffffffffff1681526020016201cb7173ffffffffffffffffffffffffffffffffffffffff1673ffffffffffffffffffffffffffffffffffffffff1681526020016201cb7173ffffffffffffffffffffffffffffffffffffffff1673ffffffffffffffffffffffffffffffffffffffff1681526020016201cb7173ffffffffffffffffffffffffffffffffffffffff1673ffffffffffffffffffffffffffffffffffffffff168152602001734b3a0d73454b74172fe61b5a3eac2f34c067554673ffffffffffffffffffffffffffffffffffffffff1673ffffffffffffffffffffffffffffffffffffffff168152602001734b3a0d73454b74172fe61b5a3eac2f34c067554673ffffffffffffffffffffffffffffffffffffffff1673ffffffffffffffffffffffffffffffffffffffff168152602001734b3a0d73454b74172fe61b5a3eac2f34c067554673ffffffffffffffffffffffffffffffffffffffff1673ffffffffffffffffffffffffffffffffffffffff1681526020016110f273ffffffffffffffffffffffffffffffffffffffff1673ffffffffffffffffffffffffffffffffffffffff16815260200161516473ffffffffffffffffffffffffffffffffffffffff1673ffffffffffffffffffffffffffffffffffffffff16815260200161516473ffffffffffffffffffffffffffffffffffffffff1673ffffffffffffffffffffffffffffffffffffffff16815260200161516473ffffffffffffffffffffffffffffffffffffffff1673ffffffffffffffffffffffffffffffffffffffff168152602001614ab573ffffffffffffffffffffffffffffffffffffffff1673ffffffffffffffffffffffffffffffffffffffff168152602001614ab573ffffffffffffffffffffffffffffffffffffffff1673ffffffffffffffffffffffffffffffffffffffff168152602001614ab573ffffffffffffffffffffffffffffffffffffffff1673ffffffffffffffffffffffffffffffffffffffff1681526020016201f90973ffffffffffffffffffffffffffffffffffffffff1673ffffffffffffffffffffffffffffffffffffffff1681526020016201f90973ffffffffffffffffffffffffffffffffffffffff1673ffffffffffffffffffffffffffffffffffffffff1681526020016201f90973ffffffffffffffffffffffffffffffffffffffff1673ffffffffffffffffffffffffffffffffffffffff1681526020016201f90973ffffffffffffffffffffffffffffffffffffffff1673ffffffffffffffffffffffffffffffffffffffff1681526020016201f90973ffffffffffffffffffffffffffffffffffffffff1673ffffffffffffffffffffffffffffffffffffffff1681526020016201f90973ffffffffffffffffffffffffffffffffffffffff1673ffffffffffffffffffffffffffffffffffffffff1681526020016201f90973ffffffffffffffffffffffffffffffffffffffff1673ffffffffffffffffffffffffffffffffffffffff1681526020016201f90973ffffffffffffffffffffffffffffffffffffffff1673ffffffffffffffffffffffffffffffffffffffff1681526020016201f90973ffffffffffffffffffffffffffffffffffffffff1673ffffffffffffffffffffffffffffffffffffffff1681526020016201f90973ffffffffffffffffffffffffffffffffffffffff1673ffffffffffffffffffffffffffffffffffffffff1681526020016201f90973ffffffffffffffffffffffffffffffffffffffff1673ffffffffffffffffffffffffffffffffffffffff1681526020016201f90973ffffffffffffffffffffffffffffffffffffffff1673ffffffffffffffffffffffffffffffffffffffff1681526020016201f90973ffffffffffffffffffffffffffffffffffffffff1673ffffffffffffffffffffffffffffffffffffffff1681526020016201f90973ffffffffffffffffffffffffffffffffffffffff1673ffffffffffffffffffffffffffffffffffffffff1681526020016201f90973ffffffffffffffffffffffffffffffffffffffff1673ffffffffffffffffffffffffffffffffffffffff1681526020016201f90973ffffffffffffffffffffffffffffffffffffffff1673ffffffffffffffffffffffffffffffffffffffff1681526020016201f90973ffffffffffffffffffffffffffffffffffffffff1673ffffffffffffffffffffffffffffffffffffffff1681526020016201f90973ffffffffffffffffffffffffffffffffffffffff1673ffffffffffffffffffffffffffffffffffffffff1681526020016201f90973ffffffffffffffffffffffffffffffffffffffff1673ffffffffffffffffffffffffffffffffffffffff1681526020016201f90973ffffffffffffffffffffffffffffffffffffffff1673ffffffffffffffffffffffffffffffffffffffff1681526020016201f90973ffffffffffffffffffffffffffffffffffffffff1673ffffffffffffffffffffffffffffffffffffffff1681526020016201f90973ffffffffffffffffffffffffffffffffffffffff1673ffffffffffffffffffffffffffffffffffffffff1681526020016201f90973ffffffffffffffffffffffffffffffffffffffff1673ffffffffffffffffffffffffffffffffffffffff1681526020016201f90973ffffffffffffffffffffffffffffffffffffffff1673ffffffffffffffffffffffffffffffffffffffff1681526020016201f90973ffffffffffffffffffffffffffffffffffffffff1673ffffffffffffffffffffffffffffffffffffffff1681526020016201f90973ffffffffffffffffffffffffffffffffffffffff1673ffffffffffffffffffffffffffffffffffffffff1681526020016201f90973ffffffffffffffffffffffffffffffffffffffff1673ffffffffffffffffffffffffffffffffffffffff1681526020016201f90973ffffffffffffffffffffffffffffffffffffffff1673ffffffffffffffffffffffffffffffffffffffff1681526020016201f90973ffffffffffffffffffffffffffffffffffffffff1673ffffffffffffffffffffffffffffffffffffffff1681526020016201f90973ffffffffffffffffffffffffffffffffffffffff1673ffffffffffffffffffffffffffffffffffffffff1681526020016201f90973ffffffffffffffffffffffffffffffffffffffff1673ffffffffffffffffffffffffffffffffffffffff1681526020016201f90973ffffffffffffffffffffffffffffffffffffffff1673ffffffffffffffffffffffffffffffffffffffff1681526020016201f90973ffffffffffffffffffffffffffffffffffffffff1673ffffffffffffffffffffffffffffffffffffffff1681526020016201f90973ffffffffffffffffffffffffffffffffffffffff1673ffffffffffffffffffffffffffffffffffffffff1681526020016201f90973ffffffffffffffffffffffffffffffffffffffff1673ffffffffffffffffffffffffffffffffffffffff1681526020016201f90973ffffffffffffffffffffffffffffffffffffffff1673ffffffffffffffffffffffffffffffffffffffff1681526020016201f90973ffffffffffffffffffffffffffffffffffffffff1673ffffffffffffffffffffffffffffffffffffffff1681526020016201ee9d73ffffffffffffffffffffffffffffffffffffffff1673ffffffffffffffffffffffffffffffffffffffff168152509950610ae0604051908101604052806000600102600019166000191681526020016000600102600019166000191681526020016000600102600019166000191681526020016000600102600019166000191681526020016000600102600019166000191681526020016000600102600019166000191681526020016000600102600019166000191681526020016000600102600019166000191681526020016000600102600019166000191681526020016000600102600019166000191681526020016000600102600019166000191681526020016000600102600019166000191681526020016000600102600019166000191681526020016000600102600019166000191681526020016000600102600019166000191681526020017f616e736f6e616900000000000000000000000000000000000000000000000000600102600019166000191681526020017f616e736f6e616900000000000000000000000000000000000000000000000000600102600019166000191681526020017f616e736f6e616900000000000000000000000000000000000000000000000000600102600019166000191681526020017f616e736f6e616900000000000000000000000000000000000000000000000000600102600019166000191681526020017f616e736f6e616900000000000000000000000000000000000000000000000000600102600019166000191681526020017f616e736f6e616900000000000000000000000000000000000000000000000000600102600019166000191681526020017f616e736f6e616900000000000000000000000000000000000000000000000000600102600019166000191681526020017f616e736f6e616900000000000000000000000000000000000000000000000000600102600019166000191681526020017f616e736f6e616900000000000000000000000000000000000000000000000000600102600019166000191681526020017f616e736f6e616900000000000000000000000000000000000000000000000000600102600019166000191681526020017f616e736f6e616900000000000000000000000000000000000000000000000000600102600019166000191681526020017f616e736f6e616900000000000000000000000000000000000000000000000000600102600019166000191681526020017f616e736f6e616900000000000000000000000000000000000000000000000000600102600019166000191681526020017f616e736f6e616900000000000000000000000000000000000000000000000000600102600019166000191681526020017f616e736f6e616900000000000000000000000000000000000000000000000000600102600019166000191681526020017f616e736f6e616900000000000000000000000000000000000000000000000000600102600019166000191681526020017f616e736f6e616900000000000000000000000000000000000000000000000000600102600019166000191681526020017f616e736f6e616900000000000000000000000000000000000000000000000000600102600019166000191681526020017f616e736f6e616900000000000000000000000000000000000000000000000000600102600019166000191681526020017f616e736f6e616900000000000000000000000000000000000000000000000000600102600019166000191681526020017f616e736f6e616900000000000000000000000000000000000000000000000000600102600019166000191681526020017f616e736f6e616900000000000000000000000000000000000000000000000000600102600019166000191681526020017f616e736f6e616900000000000000000000000000000000000000000000000000600102600019166000191681526020017f616e736f6e616900000000000000000000000000000000000000000000000000600102600019166000191681526020016000600102600019166000191681526020016000600102600019166000191681526020016000600102600019166000191681526020016000600102600019166000191681526020016000600102600019166000191681526020016000600102600019166000191681526020016000600102600019166000191681526020016000600102600019166000191681526020016000600102600019166000191681526020016000600102600019166000191681526020017f626c757500000000000000000000000000000000000000000000000000000000600102600019166000191681526020017f626c757500000000000000000000000000000000000000000000000000000000600102600019166000191681526020017f626c757500000000000000000000000000000000000000000000000000000000600102600019166000191681526020017f626c757500000000000000000000000000000000000000000000000000000000600102600019166000191681526020017f626c757500000000000000000000000000000000000000000000000000000000600102600019166000191681526020017f626c757500000000000000000000000000000000000000000000000000000000600102600019166000191681526020017f626c757500000000000000000000000000000000000000000000000000000000600102600019166000191681526020017f626c757500000000000000000000000000000000000000000000000000000000600102600019166000191681526020017f626c757500000000000000000000000000000000000000000000000000000000600102600019166000191681526020017f626c757500000000000000000000000000000000000000000000000000000000600102600019166000191681526020017f626c757500000000000000000000000000000000000000000000000000000000600102600019166000191681526020017f626c757500000000000000000000000000000000000000000000000000000000600102600019166000191681526020017f626c757500000000000000000000000000000000000000000000000000000000600102600019166000191681526020017f626c757500000000000000000000000000000000000000000000000000000000600102600019166000191681526020017f626c757500000000000000000000000000000000000000000000000000000000600102600019166000191681526020017f626c757500000000000000000000000000000000000000000000000000000000600102600019166000191681526020017f626c757500000000000000000000000000000000000000000000000000000000600102600019166000191681526020017f626c757500000000000000000000000000000000000000000000000000000000600102600019166000191681526020017f626c757500000000000000000000000000000000000000000000000000000000600102600019166000191681526020017f626c757500000000000000000000000000000000000000000000000000000000600102600019166000191681526020017f626c757500000000000000000000000000000000000000000000000000000000600102600019166000191681526020017f626c757500000000000000000000000000000000000000000000000000000000600102600019166000191681526020017f626c757500000000000000000000000000000000000000000000000000000000600102600019166000191681526020017f626c757500000000000000000000000000000000000000000000000000000000600102600019166000191681526020017f626c757500000000000000000000000000000000000000000000000000000000600102600019166000191681526020017f626c757500000000000000000000000000000000000000000000000000000000600102600019166000191681526020017f626c757500000000000000000000000000000000000000000000000000000000600102600019166000191681526020017f626c757500000000000000000000000000000000000000000000000000000000600102600019166000191681526020017f626c757500000000000000000000000000000000000000000000000000000000600102600019166000191681526020017f626c757500000000000000000000000000000000000000000000000000000000600102600019166000191681526020017f626c757500000000000000000000000000000000000000000000000000000000600102600019166000191681526020017f626c757500000000000000000000000000000000000000000000000000000000600102600019166000191681526020017f626c757500000000000000000000000000000000000000000000000000000000600102600019166000191681526020017f626c757500000000000000000000000000000000000000000000000000000000600102600019166000191681526020017f626c757500000000000000000000000000000000000000000000000000000000600102600019166000191681526020017f626c757500000000000000000000000000000000000000000000000000000000600102600019166000191681526020017f626c75750000000000000000000000000000000000000000000000000000000060010260001916600019168152602001600060010260001916600019168152509850600096505b6057871015613a84578a8760578110151561386957fe5b602002015160ff16955061010e6000808152602001908152602001600020600201600087815260200190815260200160002060030160008b896057811015156138ae57fe5b602002015173ffffffffffffffffffffffffffffffffffffffff1673ffffffffffffffffffffffffffffffffffffffff16815260200190815260200160002060008a896057811015156138fd57fe5b60200201516000191660001916815260200190815260200160002060000160009054906101000a90046fffffffffffffffffffffffffffffffff166fffffffffffffffffffffffffffffffff16945061395f85896151a890919063ffffffff16565b975061010e6000808152602001908152602001600020600201600087815260200190815260200160002060030160008b8960578110151561399c57fe5b602002015173ffffffffffffffffffffffffffffffffffffffff1673ffffffffffffffffffffffffffffffffffffffff16815260200190815260200160002060008a896057811015156139eb57fe5b602002015160001916600019168152602001908152602001600020600080820160006101000a8154906fffffffffffffffffffffffffffffffff02191690556000820160106101000a8154906fffffffffffffffffffffffffffffffff02191690556001820160006101000a81549060ff02191690556001820160016101000a81549060ff021916905550508680600101975050613852565b613a9a8861010b546151c990919063ffffffff16565b61010b81905550600193505b603684111515613b005761010e600080815260200190815260200160002060020160008581526020019081526020016000206000808201600090556001820160009055600282016000905550508380600101945050613aa6565b61010e6000808152602001908152602001600020600080820160009055600182016000613b2d91906154ff565b50506a09195731e2ce35eb00000061010681905550613b4b8f6151ea565b6101065461010b819055506a09195731e2ce35eb000000610108819055506000610107819055506a09195731e2ce35eb00000061010a8190555061011061010f60009054906101000a900473ffffffffffffffffffffffffffffffffffffffff1690806001815401808255809150509060018203906000526020600020016000909192909190916101000a81548173ffffffffffffffffffffffffffffffffffffffff021916908373ffffffffffffffffffffffffffffffffffffffff160217905550507fef9fc1dee6010109e6e3b21e51d44028e246dbad8a5a71ea192a30b19e1f457f61010f60009054906101000a900473ffffffffffffffffffffffffffffffffffffffff168d604051808373ffffffffffffffffffffffffffffffffffffffff1673ffffffffffffffffffffffffffffffffffffffff1681526020018273ffffffffffffffffffffffffffffffffffffffff1673ffffffffffffffffffffffffffffffffffffffff1681526020019250505060405180910390a18b61010f60006101000a81548173ffffffffffffffffffffffffffffffffffffffff021916908373ffffffffffffffffffffffffffffffffffffffff160217905550600061010460146101000a81548160ff021916908315150217905550600061010460156101000a81548160ff021916908315150217905550613d4b615308565b600092505b610100831015613e7857600073ffffffffffffffffffffffffffffffffffffffff1660018461010081101515613d8257fe5b0160009054906101000a900473ffffffffffffffffffffffffffffffffffffffff1673ffffffffffffffffffffffffffffffffffffffff16141515613e6b57610101600060018561010081101515613dd657fe5b0160009054906101000a900473ffffffffffffffffffffffffffffffffffffffff1673ffffffffffffffffffffffffffffffffffffffff1673ffffffffffffffffffffffffffffffffffffffff1681526020019081526020016000206000905560018361010081101515613e4657fe5b0160006101000a81549073ffffffffffffffffffffffffffffffffffffffff02191690555b8280600101935050613d50565b61010160008073ffffffffffffffffffffffffffffffffffffffff1673ffffffffffffffffffffffffffffffffffffffff1681526020019081526020016000206000905561038060405190810160405280739608010323ed882a38ede9211d7691102b4f0ba073ffffffffffffffffffffffffffffffffffffffff1673ffffffffffffffffffffffffffffffffffffffff16815260200173b4207031bb146e90cab72230e0030823e02b923b73ffffffffffffffffffffffffffffffffffffffff1673ffffffffffffffffffffffffffffffffffffffff168152602001730387f0f731b518590433cd0b37e5b3eb9d3aef9873ffffffffffffffffffffffffffffffffffffffff1673ffffffffffffffffffffffffffffffffffffffff168152602001738ad69ae99804935d56704162e3f6a6f442d2ed4a73ffffffffffffffffffffffffffffffffffffffff1673ffffffffffffffffffffffffffffffffffffffff1681526020017316e7115f6595668ca34f0cae8e76196274c14ff773ffffffffffffffffffffffffffffffffffffffff1673ffffffffffffffffffffffffffffffffffffffff16815260200173dc6997b078c709327649443d0765bcaa8e37aa6c73ffffffffffffffffffffffffffffffffffffffff1673ffffffffffffffffffffffffffffffffffffffff16815260200173257988b95ee87c30844abec7736ff8a7d0be2eb173ffffffffffffffffffffffffffffffffffffffff1673ffffffffffffffffffffffffffffffffffffffff1681526020017370153f8f89f6869037fba270233409844f1f2e2e73ffffffffffffffffffffffffffffffffffffffff1673ffffffffffffffffffffffffffffffffffffffff16815260200173ae0338fefd533129694345659da36c4fe144e35073ffffffffffffffffffffffffffffffffffffffff1673ffffffffffffffffffffffffffffffffffffffff16815260200173444ab8ad5c74f82fada4765f4a4e595109903f1173ffffffffffffffffffffffffffffffffffffffff1673ffffffffffffffffffffffffffffffffffffffff1681526020017354479be2ca140163031efec1b7608b9759ec897a73ffffffffffffffffffffffffffffffffffffffff1673ffffffffffffffffffffffffffffffffffffffff16815260200173193b78eb3668982f17862181d083ff2e2a4dcc3973ffffffffffffffffffffffffffffffffffffffff1673ffffffffffffffffffffffffffffffffffffffff168152602001736833b2469e80ef0c72aa784e27b2666ab43568f573ffffffffffffffffffffffffffffffffffffffff1673ffffffffffffffffffffffffffffffffffffffff168152602001731d68938194004722b814f00003d3eca19357344a73ffffffffffffffffffffffffffffffffffffffff1673ffffffffffffffffffffffffffffffffffffffff1681526020017354479be2ca140163031efec1b7608b9759ec897a73ffffffffffffffffffffffffffffffffffffffff1673ffffffffffffffffffffffffffffffffffffffff168152602001739608010323ed882a38ede9211d7691102b4f0ba073ffffffffffffffffffffffffffffffffffffffff1673ffffffffffffffffffffffffffffffffffffffff16815260200173638141cfe7c64fe9a22400e7d9f682d5f7b3a99b73ffffffffffffffffffffffffffffffffffffffff1673ffffffffffffffffffffffffffffffffffffffff16815260200173769c72349aa599e7f63102cd3e4576fd8f30669773ffffffffffffffffffffffffffffffffffffffff1673ffffffffffffffffffffffffffffffffffffffff16815260200173e6a2be73d9f8eb7a56f27276e748b05f7d6d750073ffffffffffffffffffffffffffffffffffffffff1673ffffffffffffffffffffffffffffffffffffffff16815260200173707ad29e43f053d267854478642e278e7824366673ffffffffffffffffffffffffffffffffffffffff1673ffffffffffffffffffffffffffffffffffffffff16815260200173193b78eb3668982f17862181d083ff2e2a4dcc3973ffffffffffffffffffffffffffffffffffffffff1673ffffffffffffffffffffffffffffffffffffffff168152602001736833b2469e80ef0c72aa784e27b2666ab43568f573ffffffffffffffffffffffffffffffffffffffff1673ffffffffffffffffffffffffffffffffffffffff168152602001731d68938194004722b814f00003d3eca19357344a73ffffffffffffffffffffffffffffffffffffffff1673ffffffffffffffffffffffffffffffffffffffff1681526020017322926dd58213ab6601addfa9083b3d01b9e20fe873ffffffffffffffffffffffffffffffffffffffff1673ffffffffffffffffffffffffffffffffffffffff16815260200173769c72349aa599e7f63102cd3e4576fd8f30669773ffffffffffffffffffffffffffffffffffffffff1673ffffffffffffffffffffffffffffffffffffffff16815260200173e6a2be73d9f8eb7a56f27276e748b05f7d6d750073ffffffffffffffffffffffffffffffffffffffff1673ffffffffffffffffffffffffffffffffffffffff16815260200173638141cfe7c64fe9a22400e7d9f682d5f7b3a99b73ffffffffffffffffffffffffffffffffffffffff1673ffffffffffffffffffffffffffffffffffffffff16815260200173707ad29e43f053d267854478642e278e7824366673ffffffffffffffffffffffffffffffffffffffff1673ffffffffffffffffffffffffffffffffffffffff168152509150600090505b601c8110156146e25761010160008383601c8110151561469257fe5b602002015173ffffffffffffffffffffffffffffffffffffffff1673ffffffffffffffffffffffffffffffffffffffff168152602001908152602001600020600090558080600101915050614676565b8e73ffffffffffffffffffffffffffffffffffffffff166108fc3073ffffffffffffffffffffffffffffffffffffffff16319081150290604051600060405180830381858888f1935050505015801561473f573d6000803e3d6000fd5b5060019c5050505050505050505050505092915050565b60003660405180838380828437820191505092505050604051809103902061477d81614e6a565b156147b85761010460159054906101000a900460ff16151561479b57fe5b600061010460146101000a81548160ff0219169083151502179055505b50565b6101085481565b6000806000fd5b6101138054600181600116156101000203166002900480601f0160208091040260200160405190810160405280929190818152602001828054600181600116156101000203166002900480156148605780601f1061483557610100808354040283529160200191614860565b820191906000526020600020905b81548152906001019060200180831161484357829003601f168201915b505050505081565b6101075481565b6000806000fd5b6000739dce896ddc20ba883600176678cbee2b8ba188a973ffffffffffffffffffffffffffffffffffffffff163373ffffffffffffffffffffffffffffffffffffffff161415156148c657600080fd5b61010e6000848152602001908152602001600020600201600083815260200190815260200160002060030160008673ffffffffffffffffffffffffffffffffffffffff1673ffffffffffffffffffffffffffffffffffffffff16815260200190815260200160002060008560001916600019168152602001908152602001600020600080820160006101000a8154906fffffffffffffffffffffffffffffffff02191690556000820160106101000a8154906fffffffffffffffffffffffffffffffff02191690556001820160006101000a81549060ff02191690556001820160016101000a81549060ff0219169055505060019050949350505050565b6101095481565b600080600061010160003373ffffffffffffffffffffffffffffffffffffffff1673ffffffffffffffffffffffffffffffffffffffff1681526020019081526020016000205492506000831415614a2157614aef565b8260020a91506101026000856000191660001916815260200190815260200160002090506000828260010154161115614aee5780600001600081548092919060010191905055508181600101600082825403925050819055507fc7fb647e59b18047309aa15aad418e5d7ca96d173ad704f1031a2c3d7591734b3385604051808373ffffffffffffffffffffffffffffffffffffffff1673ffffffffffffffffffffffffffffffffffffffff16815260200182600019166000191681526020019250505060405180910390a15b5b50505050565b61010460159054906101000a900460ff1681565b61010a5481565b60008060008061010260008760001916600019168152602001908152602001600020925061010160008673ffffffffffffffffffffffffffffffffffffffff1673ffffffffffffffffffffffffffffffffffffffff1681526020019081526020016000205491506000821415614b895760009350614b9d565b8160020a9050600081846001015416141593505b50505092915050565b6000600180830161010081101515614bba57fe5b0160009054906101000a900473ffffffffffffffffffffffffffffffffffffffff169050919050565b600036604051808383808284378201915050925050506040518091039020614c0a81614e6a565b15614c2c57600061010460156101000a81548160ff0219169083151502179055505b50565b6000739dce896ddc20ba883600176678cbee2b8ba188a973ffffffffffffffffffffffffffffffffffffffff163373ffffffffffffffffffffffffffffffffffffffff16141515614c7f57600080fd5b8161010c6000739dce896ddc20ba883600176678cbee2b8ba188a973ffffffffffffffffffffffffffffffffffffffff1673ffffffffffffffffffffffffffffffffffffffff16815260200190815260200160002054101515614ce157600080fd5b614d488261010c6000739dce896ddc20ba883600176678cbee2b8ba188a973ffffffffffffffffffffffffffffffffffffffff1673ffffffffffffffffffffffffffffffffffffffff168152602001908152602001600020546151a890919063ffffffff16565b61010c6000739dce896ddc20ba883600176678cbee2b8ba188a973ffffffffffffffffffffffffffffffffffffffff1673ffffffffffffffffffffffffffffffffffffffff16815260200190815260200160002081905550600190509392505050565b60005481565b6000806000fd5b61010d602052816000526040600020602052806000526040600020600091509150505481565b6101065481565b6000614e26614e1d6101085462093a80614e0e61010754614e0942610109546153bc565b6153e6565b811515614e1757fe5b04615419565b61010a546153bc565b905090565b61011081815481101515614e3b57fe5b906000526020600020016000915054906101000a900473ffffffffffffffffffffffffffffffffffffffff1681565b60008060008061010160003373ffffffffffffffffffffffffffffffffffffffff1673ffffffffffffffffffffffffffffffffffffffff1681526020019081526020016000205492506000831415614ec157615082565b610102600086600019166000191681526020019081526020016000209150600082600001541415614f46576000548260000181905550600082600101819055506101038054809190600101614f169190615520565b8260020181905550846101038360020154815481101515614f3357fe5b9060005260206000200181600019169055505b8260020a90506000818360010154161415615081577fe1c52dc63b719ade82e8bea94cc41a0d5d28e4aaf536adb5e9cccc9ff8c1aeda3386604051808373ffffffffffffffffffffffffffffffffffffffff1673ffffffffffffffffffffffffffffffffffffffff16815260200182600019166000191681526020019250505060405180910390a16001826000015411151561505957610103610102600087600019166000191681526020019081526020016000206002015481548110151561500b57fe5b90600052602060002001600090556101026000866000191660001916815260200190815260200160002060008082016000905560018201600090556002820160009055505060019350615082565b8160000160008154809291906001900391905055508082600101600082825417925050819055505b5b505050919050565b6150a08161010b546151c990919063ffffffff16565b61010b819055506150fa8161010c60008573ffffffffffffffffffffffffffffffffffffffff1673ffffffffffffffffffffffffffffffffffffffff168152602001908152602001600020546151c990919063ffffffff16565b61010c60008473ffffffffffffffffffffffffffffffffffffffff1673ffffffffffffffffffffffffffffffffffffffff16815260200190815260200160002081905550600073ffffffffffffffffffffffffffffffffffffffff168273ffffffffffffffffffffffffffffffffffffffff167fddf252ad1be2c89b69c2b068fc378daa952ba7f163c4a11628f55a4df523b3ef836040518082815260200191505060405180910390a35050565b60008082840190508381101515156151bf57600080fd5b8091505092915050565b6000808383111515156151db57600080fd5b82840390508091505092915050565b600061520561010b54610106546151c990919063ffffffff16565b905061525a8161010c60008573ffffffffffffffffffffffffffffffffffffffff1673ffffffffffffffffffffffffffffffffffffffff168152602001908152602001600020546151a890919063ffffffff16565b61010c60008473ffffffffffffffffffffffffffffffffffffffff1673ffffffffffffffffffffffffffffffffffffffff168152602001908152602001600020819055508173ffffffffffffffffffffffffffffffffffffffff16600073ffffffffffffffffffffffffffffffffffffffff167fddf252ad1be2c89b69c2b068fc378daa952ba7f163c4a11628f55a4df523b3ef836040518082815260200191505060405180910390a35050565b600080610103805490509150600090505b818110156153a95760006001026101038281548110151561533657fe5b90600052602060002001546000191614151561539e5761010260006101038381548110151561536157fe5b9060005260206000200154600019166000191681526020019081526020016000206000808201600090556001820160009055600282016000905550505b806001019050615319565b61010360006153b8919061554c565b5050565b60008082840390508383111580156153d45750838111155b15156153dc57fe5b8091505092915050565b60008082840290506000841480615407575082848281151561540457fe5b04145b151561540f57fe5b8091505092915050565b60008082840190508381101580156154315750828110155b151561543957fe5b8091505092915050565b81548183558181111561546a57818360005260206000209182019101615469919061556d565b5b505050565b610ae060405190810160405280605790602082028038833980820191505090505090565b610ae060405190810160405280605790602082028038833980820191505090505090565b610ae060405190810160405280605790602082028038833980820191505090505090565b61038060405190810160405280601c90602082028038833980820191505090505090565b508054600082559060005260206000209081019061551d919061556d565b50565b815481835581811115615547578183600052602060002091820191016155469190615592565b5b505050565b508054600082559060005260206000209081019061556a9190615592565b50565b61558f91905b8082111561558b576000816000905550600101615573565b5090565b90565b6155b491905b808211156155b0576000816000905550600101615598565b5090565b905600a165627a7a7230582010c5afcffdfec928c01f88aadf88ad7f93d50c52207d6a11f9d674cb8a3e51600029",
  "source": "pragma solidity >=0.4.11 <0.5.0;\n\nimport \"./helpers/openzeppelin-solidity/math/SafeMath.sol\";\nimport \"./StoppableShareable.sol\";\nimport \"./NumeraireShared.sol\";\n\n\n/// @title UpgradeDelegate\n/// @notice Delegate contract used to execute final token upgrade\n/// @dev This contract could optionally hardcode the address of the multisig\n/// wallet before deployment - it is currently supplied as a function argument.\n/// @dev Deployed at address\n/// @dev Set in tx\n/// @dev Retired in tx\ncontract UpgradeDelegate is StoppableShareable, NumeraireShared {\n\n    address public delegateContract;\n    bool public contractUpgradable;\n    address[] public previousDelegates;\n\n    string public standard;\n\n    string public name;\n    string public symbol;\n    uint256 public decimals;\n\n    event DelegateChanged(address oldAddress, address newAddress);\n\n    using SafeMath for uint256;\n\n    // set the address of the tournament contract as a constant.\n    address private constant _TOURNAMENT = address(\n        0x9DCe896DdC20BA883600176678cbEe2B8BA188A9\n    );\n\n    /// @dev Constructor called on deployment to initialize the delegate\n    ///      contract multisig (even though it is an implementation contract,\n    ///      just in case) and to confirm that the deployment address of the\n    ///      contract matches the expected deployment address.\n    /// @param _owners Array of owner address to control multisig\n    /// @param _num_required Uint number of owners required for multisig transaction\n    constructor(address[] _owners, uint256 _num_required) public StoppableShareable(_owners, _num_required) {\n        require(\n            address(this) == address(0x3361F79f0819fD5feaA37bea44C8a33d98b2A1cd),\n            \"incorrect deployment address - check submitting account & nonce.\"\n        );\n    }\n\n    /// @dev Used to execute the token upgrade. The new tournament must first be\n    //       initialized. Can only be called by the dedicated deployment address.\n    /// @dev Executes the following steps:\n    ///   1) Burn any NMR at the token contract's address and the null address.\n    ///   2) Mint the remaining NMR supply to the designated multisig.\n    ///   3) Transfer the remaining ETH balance to the designated multisig.\n    ///   4) Clear the stake data, round data, and tournament data of tournament 0\n    ///   5) Set new totalSupply and supply_cap values to 11 million NMR\n    ///   6) Designate new delegate contract as NumeraireDelegateV3\n    ///   7) Permanently disable freezing\n    ///   8) Clear all existing owners\n    function numeraiTransfer(address multiSig, uint256) public returns (bool ok) {\n        // only the deployment address can call this function\n        require(msg.sender == address(0x249e479b571Fea3DE01F186cF22383a79b21ca7F));\n\n        // define the delegate address using the expected hardcoded address\n        address delegateV3 = address(0x29F709e42C95C604BA76E73316d325077f8eB7b2);\n\n        // zero out the NMR balance of the token contract and adjust totalSupply\n        _burn(address(this), balanceOf[address(this)]);\n\n        // zero out the NMR balance of the null address and adjust totalSupply\n        _burn(address(0), balanceOf[address(0)]);\n\n        // clear tournament 0 stakes (should cause totalSupply == sum(balances))\n        uint8[87] memory roundIds = [\n            uint8(0x0000000000000000000000000000000000000000000000000000000000000002),\n            uint8(0x0000000000000000000000000000000000000000000000000000000000000002),\n            uint8(0x0000000000000000000000000000000000000000000000000000000000000003),\n            uint8(0x0000000000000000000000000000000000000000000000000000000000000004),\n            uint8(0x0000000000000000000000000000000000000000000000000000000000000002),\n            uint8(0x0000000000000000000000000000000000000000000000000000000000000003),\n            uint8(0x0000000000000000000000000000000000000000000000000000000000000004),\n            uint8(0x0000000000000000000000000000000000000000000000000000000000000003),\n            uint8(0x0000000000000000000000000000000000000000000000000000000000000004),\n            uint8(0x0000000000000000000000000000000000000000000000000000000000000004),\n            uint8(0x0000000000000000000000000000000000000000000000000000000000000002),\n            uint8(0x0000000000000000000000000000000000000000000000000000000000000003),\n            uint8(0x0000000000000000000000000000000000000000000000000000000000000004),\n            uint8(0x0000000000000000000000000000000000000000000000000000000000000003),\n            uint8(0x0000000000000000000000000000000000000000000000000000000000000002),\n            uint8(0x0000000000000000000000000000000000000000000000000000000000000006),\n            uint8(0x0000000000000000000000000000000000000000000000000000000000000007),\n            uint8(0x0000000000000000000000000000000000000000000000000000000000000008),\n            uint8(0x0000000000000000000000000000000000000000000000000000000000000009),\n            uint8(0x000000000000000000000000000000000000000000000000000000000000000b),\n            uint8(0x000000000000000000000000000000000000000000000000000000000000000c),\n            uint8(0x000000000000000000000000000000000000000000000000000000000000000d),\n            uint8(0x0000000000000000000000000000000000000000000000000000000000000011),\n            uint8(0x0000000000000000000000000000000000000000000000000000000000000012),\n            uint8(0x0000000000000000000000000000000000000000000000000000000000000013),\n            uint8(0x0000000000000000000000000000000000000000000000000000000000000014),\n            uint8(0x0000000000000000000000000000000000000000000000000000000000000015),\n            uint8(0x0000000000000000000000000000000000000000000000000000000000000016),\n            uint8(0x0000000000000000000000000000000000000000000000000000000000000017),\n            uint8(0x0000000000000000000000000000000000000000000000000000000000000018),\n            uint8(0x000000000000000000000000000000000000000000000000000000000000000e),\n            uint8(0x000000000000000000000000000000000000000000000000000000000000000f),\n            uint8(0x0000000000000000000000000000000000000000000000000000000000000010),\n            uint8(0x0000000000000000000000000000000000000000000000000000000000000019),\n            uint8(0x000000000000000000000000000000000000000000000000000000000000001a),\n            uint8(0x000000000000000000000000000000000000000000000000000000000000001b),\n            uint8(0x000000000000000000000000000000000000000000000000000000000000001c),\n            uint8(0x000000000000000000000000000000000000000000000000000000000000001d),\n            uint8(0x0000000000000000000000000000000000000000000000000000000000000036),\n            uint8(0x0000000000000000000000000000000000000000000000000000000000000004),\n            uint8(0x0000000000000000000000000000000000000000000000000000000000000002),\n            uint8(0x0000000000000000000000000000000000000000000000000000000000000003),\n            uint8(0x000000000000000000000000000000000000000000000000000000000000000a),\n            uint8(0x0000000000000000000000000000000000000000000000000000000000000002),\n            uint8(0x0000000000000000000000000000000000000000000000000000000000000003),\n            uint8(0x0000000000000000000000000000000000000000000000000000000000000004),\n            uint8(0x0000000000000000000000000000000000000000000000000000000000000002),\n            uint8(0x0000000000000000000000000000000000000000000000000000000000000003),\n            uint8(0x0000000000000000000000000000000000000000000000000000000000000004),\n            uint8(0x0000000000000000000000000000000000000000000000000000000000000011),\n            uint8(0x0000000000000000000000000000000000000000000000000000000000000012),\n            uint8(0x0000000000000000000000000000000000000000000000000000000000000013),\n            uint8(0x000000000000000000000000000000000000000000000000000000000000001e),\n            uint8(0x000000000000000000000000000000000000000000000000000000000000001f),\n            uint8(0x0000000000000000000000000000000000000000000000000000000000000020),\n            uint8(0x0000000000000000000000000000000000000000000000000000000000000021),\n            uint8(0x0000000000000000000000000000000000000000000000000000000000000022),\n            uint8(0x0000000000000000000000000000000000000000000000000000000000000023),\n            uint8(0x0000000000000000000000000000000000000000000000000000000000000024),\n            uint8(0x0000000000000000000000000000000000000000000000000000000000000025),\n            uint8(0x0000000000000000000000000000000000000000000000000000000000000014),\n            uint8(0x0000000000000000000000000000000000000000000000000000000000000015),\n            uint8(0x0000000000000000000000000000000000000000000000000000000000000016),\n            uint8(0x0000000000000000000000000000000000000000000000000000000000000017),\n            uint8(0x0000000000000000000000000000000000000000000000000000000000000018),\n            uint8(0x0000000000000000000000000000000000000000000000000000000000000019),\n            uint8(0x000000000000000000000000000000000000000000000000000000000000001a),\n            uint8(0x000000000000000000000000000000000000000000000000000000000000001b),\n            uint8(0x000000000000000000000000000000000000000000000000000000000000001c),\n            uint8(0x000000000000000000000000000000000000000000000000000000000000001d),\n            uint8(0x0000000000000000000000000000000000000000000000000000000000000026),\n            uint8(0x0000000000000000000000000000000000000000000000000000000000000027),\n            uint8(0x0000000000000000000000000000000000000000000000000000000000000028),\n            uint8(0x0000000000000000000000000000000000000000000000000000000000000029),\n            uint8(0x000000000000000000000000000000000000000000000000000000000000002a),\n            uint8(0x0000000000000000000000000000000000000000000000000000000000000035),\n            uint8(0x000000000000000000000000000000000000000000000000000000000000002b),\n            uint8(0x000000000000000000000000000000000000000000000000000000000000002c),\n            uint8(0x000000000000000000000000000000000000000000000000000000000000002d),\n            uint8(0x000000000000000000000000000000000000000000000000000000000000002e),\n            uint8(0x000000000000000000000000000000000000000000000000000000000000002f),\n            uint8(0x0000000000000000000000000000000000000000000000000000000000000030),\n            uint8(0x0000000000000000000000000000000000000000000000000000000000000031),\n            uint8(0x0000000000000000000000000000000000000000000000000000000000000032),\n            uint8(0x0000000000000000000000000000000000000000000000000000000000000033),\n            uint8(0x0000000000000000000000000000000000000000000000000000000000000034),\n            uint8(0x0000000000000000000000000000000000000000000000000000000000000005)\n        ];\n        address[87] memory stakers = [\n            address(0x00000000000000000000000000000000000000000000000000000000000007e0),\n            address(0x0000000000000000000000000000000000000000000000000000000000004c4c),\n            address(0x00000000000000000000000000000000000000000000000000000000000007e0),\n            address(0x00000000000000000000000000000000000000000000000000000000000007e0),\n            address(0x0000000000000000000000000000000000000000000000000000000000004ab4),\n            address(0x0000000000000000000000000000000000000000000000000000000000004ab4),\n            address(0x0000000000000000000000000000000000000000000000000000000000004ab4),\n            address(0x0000000000000000000000000000000000000000000000000000000000004ab9),\n            address(0x0000000000000000000000000000000000000000000000000000000000004ab9),\n            address(0x0000000000000000000000000000000000000000000000000000000000004c4c),\n            address(0x0000000000000000000000000000000000000000000000000000000000004ab6),\n            address(0x0000000000000000000000000000000000000000000000000000000000004ab6),\n            address(0x0000000000000000000000000000000000000000000000000000000000004ab6),\n            address(0x0000000000000000000000000000000000000000000000000000000000004c4c),\n            address(0x0000000000000000000000000000000000000000000000000000000000004ab9),\n            address(0x000000000000000000000000000000000000000000000000000000000001cb71),\n            address(0x000000000000000000000000000000000000000000000000000000000001cb71),\n            address(0x000000000000000000000000000000000000000000000000000000000001cb71),\n            address(0x000000000000000000000000000000000000000000000000000000000001cb71),\n            address(0x000000000000000000000000000000000000000000000000000000000001cb71),\n            address(0x000000000000000000000000000000000000000000000000000000000001cb71),\n            address(0x000000000000000000000000000000000000000000000000000000000001cb71),\n            address(0x000000000000000000000000000000000000000000000000000000000001cb71),\n            address(0x000000000000000000000000000000000000000000000000000000000001cb71),\n            address(0x000000000000000000000000000000000000000000000000000000000001cb71),\n            address(0x000000000000000000000000000000000000000000000000000000000001cb71),\n            address(0x000000000000000000000000000000000000000000000000000000000001cb71),\n            address(0x000000000000000000000000000000000000000000000000000000000001cb71),\n            address(0x000000000000000000000000000000000000000000000000000000000001cb71),\n            address(0x000000000000000000000000000000000000000000000000000000000001cb71),\n            address(0x000000000000000000000000000000000000000000000000000000000001cb71),\n            address(0x000000000000000000000000000000000000000000000000000000000001cb71),\n            address(0x000000000000000000000000000000000000000000000000000000000001cb71),\n            address(0x000000000000000000000000000000000000000000000000000000000001cb71),\n            address(0x000000000000000000000000000000000000000000000000000000000001cb71),\n            address(0x000000000000000000000000000000000000000000000000000000000001cb71),\n            address(0x000000000000000000000000000000000000000000000000000000000001cb71),\n            address(0x000000000000000000000000000000000000000000000000000000000001cb71),\n            address(0x000000000000000000000000000000000000000000000000000000000001cb71),\n            address(0x0000000000000000000000004b3a0d73454b74172fe61b5a3eac2f34c0675546),\n            address(0x0000000000000000000000004b3a0d73454b74172fe61b5a3eac2f34c0675546),\n            address(0x0000000000000000000000004b3a0d73454b74172fe61b5a3eac2f34c0675546),\n            address(0x00000000000000000000000000000000000000000000000000000000000010f2),\n            address(0x0000000000000000000000000000000000000000000000000000000000005164),\n            address(0x0000000000000000000000000000000000000000000000000000000000005164),\n            address(0x0000000000000000000000000000000000000000000000000000000000005164),\n            address(0x0000000000000000000000000000000000000000000000000000000000004ab5),\n            address(0x0000000000000000000000000000000000000000000000000000000000004ab5),\n            address(0x0000000000000000000000000000000000000000000000000000000000004ab5),\n            address(0x000000000000000000000000000000000000000000000000000000000001f909),\n            address(0x000000000000000000000000000000000000000000000000000000000001f909),\n            address(0x000000000000000000000000000000000000000000000000000000000001f909),\n            address(0x000000000000000000000000000000000000000000000000000000000001f909),\n            address(0x000000000000000000000000000000000000000000000000000000000001f909),\n            address(0x000000000000000000000000000000000000000000000000000000000001f909),\n            address(0x000000000000000000000000000000000000000000000000000000000001f909),\n            address(0x000000000000000000000000000000000000000000000000000000000001f909),\n            address(0x000000000000000000000000000000000000000000000000000000000001f909),\n            address(0x000000000000000000000000000000000000000000000000000000000001f909),\n            address(0x000000000000000000000000000000000000000000000000000000000001f909),\n            address(0x000000000000000000000000000000000000000000000000000000000001f909),\n            address(0x000000000000000000000000000000000000000000000000000000000001f909),\n            address(0x000000000000000000000000000000000000000000000000000000000001f909),\n            address(0x000000000000000000000000000000000000000000000000000000000001f909),\n            address(0x000000000000000000000000000000000000000000000000000000000001f909),\n            address(0x000000000000000000000000000000000000000000000000000000000001f909),\n            address(0x000000000000000000000000000000000000000000000000000000000001f909),\n            address(0x000000000000000000000000000000000000000000000000000000000001f909),\n            address(0x000000000000000000000000000000000000000000000000000000000001f909),\n            address(0x000000000000000000000000000000000000000000000000000000000001f909),\n            address(0x000000000000000000000000000000000000000000000000000000000001f909),\n            address(0x000000000000000000000000000000000000000000000000000000000001f909),\n            address(0x000000000000000000000000000000000000000000000000000000000001f909),\n            address(0x000000000000000000000000000000000000000000000000000000000001f909),\n            address(0x000000000000000000000000000000000000000000000000000000000001f909),\n            address(0x000000000000000000000000000000000000000000000000000000000001f909),\n            address(0x000000000000000000000000000000000000000000000000000000000001f909),\n            address(0x000000000000000000000000000000000000000000000000000000000001f909),\n            address(0x000000000000000000000000000000000000000000000000000000000001f909),\n            address(0x000000000000000000000000000000000000000000000000000000000001f909),\n            address(0x000000000000000000000000000000000000000000000000000000000001f909),\n            address(0x000000000000000000000000000000000000000000000000000000000001f909),\n            address(0x000000000000000000000000000000000000000000000000000000000001f909),\n            address(0x000000000000000000000000000000000000000000000000000000000001f909),\n            address(0x000000000000000000000000000000000000000000000000000000000001f909),\n            address(0x000000000000000000000000000000000000000000000000000000000001f909),\n            address(0x000000000000000000000000000000000000000000000000000000000001ee9d)\n        ];\n        bytes32[87] memory tags = [\n            bytes32(0x0000000000000000000000000000000000000000000000000000000000000000),\n            bytes32(0x0000000000000000000000000000000000000000000000000000000000000000),\n            bytes32(0x0000000000000000000000000000000000000000000000000000000000000000),\n            bytes32(0x0000000000000000000000000000000000000000000000000000000000000000),\n            bytes32(0x0000000000000000000000000000000000000000000000000000000000000000),\n            bytes32(0x0000000000000000000000000000000000000000000000000000000000000000),\n            bytes32(0x0000000000000000000000000000000000000000000000000000000000000000),\n            bytes32(0x0000000000000000000000000000000000000000000000000000000000000000),\n            bytes32(0x0000000000000000000000000000000000000000000000000000000000000000),\n            bytes32(0x0000000000000000000000000000000000000000000000000000000000000000),\n            bytes32(0x0000000000000000000000000000000000000000000000000000000000000000),\n            bytes32(0x0000000000000000000000000000000000000000000000000000000000000000),\n            bytes32(0x0000000000000000000000000000000000000000000000000000000000000000),\n            bytes32(0x0000000000000000000000000000000000000000000000000000000000000000),\n            bytes32(0x0000000000000000000000000000000000000000000000000000000000000000),\n            bytes32(0x616e736f6e616900000000000000000000000000000000000000000000000000),\n            bytes32(0x616e736f6e616900000000000000000000000000000000000000000000000000),\n            bytes32(0x616e736f6e616900000000000000000000000000000000000000000000000000),\n            bytes32(0x616e736f6e616900000000000000000000000000000000000000000000000000),\n            bytes32(0x616e736f6e616900000000000000000000000000000000000000000000000000),\n            bytes32(0x616e736f6e616900000000000000000000000000000000000000000000000000),\n            bytes32(0x616e736f6e616900000000000000000000000000000000000000000000000000),\n            bytes32(0x616e736f6e616900000000000000000000000000000000000000000000000000),\n            bytes32(0x616e736f6e616900000000000000000000000000000000000000000000000000),\n            bytes32(0x616e736f6e616900000000000000000000000000000000000000000000000000),\n            bytes32(0x616e736f6e616900000000000000000000000000000000000000000000000000),\n            bytes32(0x616e736f6e616900000000000000000000000000000000000000000000000000),\n            bytes32(0x616e736f6e616900000000000000000000000000000000000000000000000000),\n            bytes32(0x616e736f6e616900000000000000000000000000000000000000000000000000),\n            bytes32(0x616e736f6e616900000000000000000000000000000000000000000000000000),\n            bytes32(0x616e736f6e616900000000000000000000000000000000000000000000000000),\n            bytes32(0x616e736f6e616900000000000000000000000000000000000000000000000000),\n            bytes32(0x616e736f6e616900000000000000000000000000000000000000000000000000),\n            bytes32(0x616e736f6e616900000000000000000000000000000000000000000000000000),\n            bytes32(0x616e736f6e616900000000000000000000000000000000000000000000000000),\n            bytes32(0x616e736f6e616900000000000000000000000000000000000000000000000000),\n            bytes32(0x616e736f6e616900000000000000000000000000000000000000000000000000),\n            bytes32(0x616e736f6e616900000000000000000000000000000000000000000000000000),\n            bytes32(0x616e736f6e616900000000000000000000000000000000000000000000000000),\n            bytes32(0x0000000000000000000000000000000000000000000000000000000000000000),\n            bytes32(0x0000000000000000000000000000000000000000000000000000000000000000),\n            bytes32(0x0000000000000000000000000000000000000000000000000000000000000000),\n            bytes32(0x0000000000000000000000000000000000000000000000000000000000000000),\n            bytes32(0x0000000000000000000000000000000000000000000000000000000000000000),\n            bytes32(0x0000000000000000000000000000000000000000000000000000000000000000),\n            bytes32(0x0000000000000000000000000000000000000000000000000000000000000000),\n            bytes32(0x0000000000000000000000000000000000000000000000000000000000000000),\n            bytes32(0x0000000000000000000000000000000000000000000000000000000000000000),\n            bytes32(0x0000000000000000000000000000000000000000000000000000000000000000),\n            bytes32(0x626c757500000000000000000000000000000000000000000000000000000000),\n            bytes32(0x626c757500000000000000000000000000000000000000000000000000000000),\n            bytes32(0x626c757500000000000000000000000000000000000000000000000000000000),\n            bytes32(0x626c757500000000000000000000000000000000000000000000000000000000),\n            bytes32(0x626c757500000000000000000000000000000000000000000000000000000000),\n            bytes32(0x626c757500000000000000000000000000000000000000000000000000000000),\n            bytes32(0x626c757500000000000000000000000000000000000000000000000000000000),\n            bytes32(0x626c757500000000000000000000000000000000000000000000000000000000),\n            bytes32(0x626c757500000000000000000000000000000000000000000000000000000000),\n            bytes32(0x626c757500000000000000000000000000000000000000000000000000000000),\n            bytes32(0x626c757500000000000000000000000000000000000000000000000000000000),\n            bytes32(0x626c757500000000000000000000000000000000000000000000000000000000),\n            bytes32(0x626c757500000000000000000000000000000000000000000000000000000000),\n            bytes32(0x626c757500000000000000000000000000000000000000000000000000000000),\n            bytes32(0x626c757500000000000000000000000000000000000000000000000000000000),\n            bytes32(0x626c757500000000000000000000000000000000000000000000000000000000),\n            bytes32(0x626c757500000000000000000000000000000000000000000000000000000000),\n            bytes32(0x626c757500000000000000000000000000000000000000000000000000000000),\n            bytes32(0x626c757500000000000000000000000000000000000000000000000000000000),\n            bytes32(0x626c757500000000000000000000000000000000000000000000000000000000),\n            bytes32(0x626c757500000000000000000000000000000000000000000000000000000000),\n            bytes32(0x626c757500000000000000000000000000000000000000000000000000000000),\n            bytes32(0x626c757500000000000000000000000000000000000000000000000000000000),\n            bytes32(0x626c757500000000000000000000000000000000000000000000000000000000),\n            bytes32(0x626c757500000000000000000000000000000000000000000000000000000000),\n            bytes32(0x626c757500000000000000000000000000000000000000000000000000000000),\n            bytes32(0x626c757500000000000000000000000000000000000000000000000000000000),\n            bytes32(0x626c757500000000000000000000000000000000000000000000000000000000),\n            bytes32(0x626c757500000000000000000000000000000000000000000000000000000000),\n            bytes32(0x626c757500000000000000000000000000000000000000000000000000000000),\n            bytes32(0x626c757500000000000000000000000000000000000000000000000000000000),\n            bytes32(0x626c757500000000000000000000000000000000000000000000000000000000),\n            bytes32(0x626c757500000000000000000000000000000000000000000000000000000000),\n            bytes32(0x626c757500000000000000000000000000000000000000000000000000000000),\n            bytes32(0x626c757500000000000000000000000000000000000000000000000000000000),\n            bytes32(0x626c757500000000000000000000000000000000000000000000000000000000),\n            bytes32(0x626c757500000000000000000000000000000000000000000000000000000000),\n            bytes32(0x0000000000000000000000000000000000000000000000000000000000000000)\n        ];\n\n        uint256 totalStakeAmount;\n        for (uint256 i = 0; i < roundIds.length; i++) {\n            uint256 roundID = uint256(roundIds[i]);\n            uint256 stakeAmount = uint256(tournaments[0].rounds[roundID].stakes[stakers[i]][tags[i]].amount);\n            totalStakeAmount = totalStakeAmount.add(stakeAmount);\n            delete tournaments[0].rounds[roundID].stakes[stakers[i]][tags[i]];\n        }\n\n        // clear tournament 0 stakes\n        totalSupply = totalSupply.sub(totalStakeAmount);\n\n        // clear tournament 0 rounds\n        for (uint256 j = 1; j <= 54; j++) {\n            delete tournaments[0].rounds[j];\n        }\n\n        // clear tournament 0\n        delete tournaments[0];\n\n        // premine the difference between 11 million and totalSupply to multisig\n        /* NOTE: Must be the final balance manipulation */\n        supply_cap = 11e24;\n        _mint(multiSig);\n        totalSupply = supply_cap;\n\n        // Set minting variables\n        initial_disbursement = 11e24;\n        weekly_disbursement = 0;\n        total_minted = 11e24;\n\n        // Set delegateV3\n        previousDelegates.push(delegateContract);\n        emit DelegateChanged(delegateContract, delegateV3);\n        delegateContract = delegateV3;\n\n        // Unfreeze and disable freezing\n        stopped = false;\n        stoppable = false;\n\n        // Clear ownership - BE SURE THAT ownerIndex IS CLEARED PROPERLY!\n        clearPending();\n        for (uint256 z = 0; z < owners.length; z++) {\n            if (owners[z] != address(0)) {\n                delete ownerIndex[owners[z]];\n                delete owners[z];\n            }\n        }\n        delete ownerIndex[address(0)]; // just in case...\n\n        // Double check all previous owners have been cleared\n        address[28] memory previousOwners = [\n            address(0x9608010323eD882a38eDe9211D7691102b4F0Ba0),\n            address(0xb4207031Bb146E90CAb72230E0030823E02b923B),\n            address(0x0387F0f731b518590433Cd0b37e5b3EB9d3aeF98),\n            address(0x8ad69Ae99804935d56704162E3F6A6f442D2Ed4a),\n            address(0x16e7115f6595668ca34F0CaE8E76196274c14FF7),\n            address(0xdc6997b078C709327649443D0765BCAa8e37aA6C),\n            address(0x257988B95EE87c30844aBEc7736Ff8a7D0bE2EB1),\n            address(0x70153f8F89F6869037FBA270233409844F1F2E2e),\n            address(0xaE0338Fefd533129694345659dA36C4fe144e350),\n            address(0x444ab8aD5C74f82fada4765F4a4E595109903f11),\n            address(0x54479Be2CA140163031eFec1b7608b9759eC897a),\n            address(0x193B78eb3668982f17862181D083FF2e2A4DCc39),\n            address(0x6833b2469e80ef0c72aa784e27b2666ab43568f5),\n            address(0x1d68938194004722b814f00003d3eca19357344a),\n            address(0x54479Be2CA140163031eFec1b7608b9759eC897a),\n            address(0x9608010323eD882a38eDe9211D7691102b4F0Ba0),\n            address(0x638141cfe7c64fe9a22400e7d9f682d5f7b3a99b),\n            address(0x769c72349aa599e7f63102cd3e4576fd8f306697),\n            address(0xe6a2be73d9f8eb7a56f27276e748b05f7d6d7500),\n            address(0x707ad29e43f053d267854478642e278e78243666),\n            address(0x193B78eb3668982f17862181D083FF2e2A4DCc39),\n            address(0x6833b2469e80ef0c72aa784e27b2666ab43568f5),\n            address(0x1d68938194004722b814f00003d3eca19357344a),\n            address(0x22926dd58213ab6601addfa9083b3d01b9e20fe8),\n            address(0x769c72349aa599e7f63102cd3e4576fd8f306697),\n            address(0xe6a2be73d9f8eb7a56f27276e748b05f7d6d7500),\n            address(0x638141cfe7c64fe9a22400e7d9f682d5f7b3a99b),\n            address(0x707ad29e43f053d267854478642e278e78243666)\n        ];\n        for (uint256 y = 0; y < previousOwners.length; y++) {\n            delete ownerIndex[previousOwners[y]];\n        }\n\n        // transfer all ETH on the token contract to multisig\n        multiSig.transfer(address(this).balance);\n\n        return true;\n    }\n\n    /// @dev Used for clearing active round data from the old tournament\n    ///      contract. Can only be called by the new tournament address.\n    function createRound(uint256 _tournamentID, uint256 _numRounds, uint256, uint256) public returns (bool ok) {\n        // only the tournament can call this function.\n        require(msg.sender == _TOURNAMENT);\n\n        // validate number of rounds wont underflow\n        require(_numRounds <= tournaments[_tournamentID].roundIDs.length);\n\n        // iterate over each round and delete it.\n        for (uint256 i = 1; i <= _numRounds; i++) {\n\n            // get new array length reference\n            uint256 newLength = tournaments[_tournamentID].roundIDs.length;\n\n            // determine the last round ID.\n            uint256 roundID = tournaments[_tournamentID].roundIDs[newLength - 1];\n\n            // delete the round.\n            delete tournaments[_tournamentID].rounds[roundID];\n\n            // reduce the roundIDs array.\n            tournaments[_tournamentID].roundIDs.length--;\n\n        }\n\n        return true;\n    }\n\n    /// @dev Used for clearing active stakes from the old tournament contract.\n    ///      Can only be called by the new tournament address.\n    function destroyStake(address _staker, bytes32 _tag, uint256 _tournamentID, uint256 _roundID) public returns (bool ok) {\n        // only the tournament can call this function.\n        require(msg.sender == _TOURNAMENT);\n        delete tournaments[_tournamentID].rounds[_roundID].stakes[_staker][_tag];\n        return true;\n    }\n\n    /// @dev Used to credit new tournament with active stake balances once\n    ///      intialization is completed and before performing the upgrade.\n    ///      Can only be called by the new tournament address.\n    function withdraw(address, address, uint256 _stakeAmt) public returns (bool ok) {\n        // only the tournament can call this function.\n        require(msg.sender == _TOURNAMENT);\n        // prevent from being called twice\n        require(balanceOf[_TOURNAMENT] < _stakeAmt);\n        balanceOf[_TOURNAMENT] = balanceOf[_TOURNAMENT].add(_stakeAmt);\n        return true;\n    }\n\n    /// @dev Disabled function no longer used\n    function mint(uint256) public pure returns (bool) {\n        revert();\n    }\n\n    /// @dev Disabled function no longer used\n    function releaseStake(address, bytes32, uint256, uint256, uint256, bool) public pure returns (bool) {\n        revert();\n    }\n\n    /// @dev Disabled function no longer used\n    function stake(uint256, bytes32, uint256, uint256, uint256) public pure returns (bool) {\n        revert();\n    }\n\n    /// @dev Disabled function no longer used\n    function stakeOnBehalf(address, uint256, bytes32, uint256, uint256, uint256) public pure returns (bool) {\n        revert();\n    }\n\n    /// @dev Disabled function no longer used\n    function createTournament(uint256) public pure returns (bool) {\n        revert();\n    }\n\n    ////////////////////////\n    // Internal Functions //\n    ////////////////////////\n\n    function _burn(address _account, uint256 _value) internal {\n        totalSupply = totalSupply.sub(_value);\n        balanceOf[_account] = balanceOf[_account].sub(_value);\n        emit Transfer(_account, address(0), _value);\n    }\n\n    function _mint(address multiSig) internal {\n        uint256 mintAmount = supply_cap.sub(totalSupply);\n        balanceOf[multiSig] = balanceOf[multiSig].add(mintAmount);\n        emit Transfer(address(0), multiSig, mintAmount);\n    }\n}\n",
  "sourcePath": "/Users/thegostep/github/NMR/contracts/UpgradeDelegate.sol",
  "compiler": {
    "name": "solc",
    "version": "0.4.25+commit.59dbf8f1.Emscripten.clang",
    "optimizer": false,
    "runs": 200
  },
  "schemaVersion": "2.1.2",
  "updatedAt": "2019-07-01T19:19:16.560Z"
}